S01400005A6967626565456E644E6F64652E733337ED
S31500000000D0DB032089A10200A1690100418402001E
S31500000010A70A02020002000004180FAC2062C20008
S3150000002000000000000000000000000000000000CA
S315000000300000000048CA02000000000000000000A6
S315000000400000000000000000FFFFFFFFFFFFFFFFB2
S31500000050FFFFFFFFFFFFFFFFFFFFFFFFFFFFFFFFAA
S3150000006000E00F000000000000000000FFFFFFFF9F
S31500000070FFFFFFFF1C000000000000000000000062
S315000000800000000000000000CBFE0320CBFE032092
S31500000090D0DB0320FC2703008AA4020070D20320D1
S311000000A0C010002000001000000000004E
S31500000200D0DB032089A10200A1690100418402001C
S3150000021049840200458402004D840200598402008C
S31500000220598402005984020059840200598402004C
S315000002305184020059840200598402006575010048
S3150000024047EA0100C94C0200856F0000598402008C
S31500000250E1480200194D0200CF4C0200D14C0200C9
S31500000260CB4C020061730200AB75020015FD010064
S315000002702FCD01005984020059840200DB8602005A
S315000002805984020059840200C9750200598402008B
S3150000029059840200598402005984020059840200DC
S315000002A059840200598402005984020059840200CC
S315000002B01B4D0200CD4C020029E801004F4D020003
S315000002C05984020041A302005984020059840200A5
S315000002D0598402005984020059840200598402009C
S315000002E0598402005984020059840200598402008C
S315000002F0598402005984020059840200598402007C
S315000003005984020059840200598402006F49704AD8
S3150000031001E021B1491E1369DB07FAD401B9B0E047
S31500000320506001201060106910F0060F05D04107DB
S3150000033000D5A9E0800700D5A9E000207047F0B5F8
S3150000034013460022002936D0604C614D8BB98B4292
S3150000035031D250F8046BEE605B1C08262E602646F0
S3150000036001E036B3761E2F69FF07FAD4002EEED1D0
S315000003701FE0EFF3108672B600230EE02F6907F038
S315000003801907102F08BF2F602F693F07F6D550F8C1
S31500000390047BEF605B1C10272F608B42F4D306B9F9
S315000003A062B6264601E026B1761E2869C007FAD451
S315000003B00EB96FF002021046F0BD2DE9F0479A46DD
S315000003C0444B454F1C681B683B688046002043F041
S315000003D001033B60950881460C4602E0B14404EBFC
S315000003E08604A94517D208EB89063046FFF78EFF2B
S315000003F0010014D1C6F30A00C0F500608608A5EB1B
S315000004000900B04238BF0646524631462046FFF73D
S3150000041096FF0100E2D03968490849003960BDE815
S31500000420F0872C49294A0B6809682B490B6843F069
S3150000043001030B608860012048604869400704D5C5
S3150000044008684008400008601EE04869800704D537
S31500000450086840084000086019E00220486001E092
S3150000046022B1521E4869C007FAD422B9086840086A
S315000004704000086005E00868400840000860002069
S3150000048070476FF0020070474FF0FF3070476FF013
S3150000049001007047002390E70F48016841F0010111
S315000004A0016046F21A31C1644FF4807141604169BE
S315000004B0C907FCD44FF4007141604169C907FCD4F7
S315000004C00021C1640020704700000000809698005B
S315000004D00C000E4004300E4008000E4080B500208F
S315000004E000F044FB012002BD1E482DE9F0410068E2
S315000004F08189007D081A14469846C61E00270025E5
S3150000050006E0B2B2B9B2404600F073FDFF1C6D1CA6
S31500000510E8B2A042F5D3002000F028FB0120BDE898
S31500000520F0812DE9F8430F4E30688189007D081A65
S3150000053090469946C71E0025002409E000F014F8ED
S31500000540ED1C00F011F8AD1C00F00EF8ED1C641C5B
S31500000550E0B24045F2D33068002100F047FB0120AD
S31500000560BDE8F283B4F60320BAB2A9B2484600F059
S3150000057040BD704780B501F0B5F8FF2805D00228C8
S3150000058003D2DFF83418085C02BD002002BD10B5A6
S315000005900168DFF828280B8813804B885380497937
S315000005A011710168097951714FF48A51D18001683E
S315000005B08979890644BF4FF48B51D180DFF8001842
S315000005C083690A783BB9C088DFF8F837188002F0EB
S315000005D0FD00087010BD42F002020A701622816901
S315000005E0DFF8E447204601F0F9F90020207010BD3D
S315000005F080B5002001F061FAFF2001F0CCF801F08F
S315000006006AFA00F084FD02460121DFF8AC0701F02A
S3150000061028FADFF8A837DFF8B427DFF8B407522145
S3150000062001F036FB01F0EAFB01F080FC01F032FD3F
S3150000063001F0BDFD01F002FEBDE8014000F039BE4B
S31500000640704780B502F021FC20B903F05BFF08B9C2
S3150000065003F0FFFF04F058F8BDE8014004F060B86D
S3150000066010B500224FF6FF71DFF8683700E0521C24
S3150000067092B233F832408C4203D08442F7D110460E
S3150000068010BD084610BD38B50446FFF7E9FFDFF890
S31500000690485701464FF6FF722888914203D12246F9
S315000006A0DFF8381706E0DFF82C2702EBC1014A68AD
S315000006B0DFF82C1704F084F82888BDE8324004F0EF
S315000006C06FB810B50446DFF81C070078002882B022
S315000006D03BD004F04DF90246DFF80C17042004F075
S315000006E06FF82068418800914379A289DFF8FC16EB
S315000006F0042004F065F8042004F016F818B1206808
S315000007004088FFF7C0FFE07B28B1228ADFF8E016B9
S31500000710042004F055F8E07CDFF8D8160090A068B5
S315000007200278A37C042004F04BF8207DA1890A1AE4
S31500000730A1680144012392B2042004F03BF9BDE80C
S315000007401C40C5A1042004F035B813BDF8B5044615
S31500000750DFF8A4562068407900F0C4FF2268FF281D
S315000007600BD100F064F8DFF89416022004F028F8A4
S315000007702068DFF88C16427943E0DFF88816237F7D
S31500000780DFF8846601EB0010017B994209D000F086
S315000007904EF82068DFF8743600F044F8227FAFA1E7
S315000007A02FE040881188DFF86876884210D04FF62F
S315000007B0FF73994202D1B0F5004F09DB00F037F81C
S315000007C02068DFF8503600F02DF82068028817E020
S315000007D02079022818BF032818D11189507903F00F
S315000007E04AFF98B920684288E37C2946022003F034
S315000007F0E7FF2068DFF8203600F014F82068028949
S315000008003946022003F0D6FF0020F2BDA07B002867
S31500000810204603D0BDE8F24004F05CB9BDE8F240E2
S3150000082004F088B942793146022003F0C9BFE37C5F
S3150000083052882946022003F0C3BF30B5144683B060
S315000008401A4623785B074CBF052303239A420AD234
S3150000085000931346DFF8C425DFF8C415042003F01F
S31500000860A9FF00203EBD089D286029710698E880F2
S31500000870AC60AA81207800F00100A8732078800877
S3150000088000F00100E8732078C00800F001006875E8
S3150000089001202875E87B30B10121204600F0A9FB34
S315000008A0297D891C29752882287D411C2975205C93
S315000008B0A874481C2875C9B2605CE8740798A861DA
S315000008C004F02DFC287701203EBD2DE9FE430F469E
S315000008D0DFF85015DFF85065DFF8508591EC080B0E
S315000008E086EC080B0B9C0296019400250A99009150
S315000008F03946FFF7A2FF002875D0C8F80060B07C23
S31500000900DFF82C1508703046FFF7DBFE3046FFF7A0
S315000009103EFE304604F0DFFC98BBA4BB042F18BF94
S31500000920052F03D0022F18BF032F01D1012200E0AB
S315000009300022F188306801914188009101210388E5
S31500000940F07C00F055F908B33068817989061DD42A
S315000009504288DFF8E014DFF8E054022003F02AFFB3
S31500000960012028700121304600F040F938B10346D5
S31500000970DFF8C824DFF8C814022003F01BFF0020AC
S31500000980287001252FE0207D80072CD5306840791E
S31500000990FF2824D10027DFF8244400F0B8FBF9B281
S315000009A0814220D2F8B200F0A1FE8146F8B200F0F2
S315000009B0B2FB90B130684188484600F0ECFD60B16A
S315000009C03046FFF7E4FD306880F8059084F804901F
S315000009D03046FFF7BBFE00B101257F1CDDE7304640
S315000009E0FFF7B4FE054600F09BFA16220021DFF859
S315000009F0D80301F036F80020C8F800002846BDE804
S31500000A00FE83DFF840040178491C017001F07F0085
S31500000A107047DFF8AC130A78002814BF42F00100D3
S31500000A2002F0FE0008707047DFF81C14087070476B
S31500000A3078B1DFF814140978012903D1018841F04F
S31500000A40400105E0022904D101884FF6BF7211402A
S31500000A5001807047000000005D0000002564000072
S31500000A6078B1DFF8E8130A78012A04D1DFF8E02329
S31500000A7012780A7001E0022A03D1017841F01001D0
S31500000A80017070472DE9FE43CD4E80463078C00791
S31500000A9006D5DFF8C013022003F08CFE00205CE0D0
S31500000AA0CB4CC64DDFF824932046FFF7D9FFA81D8F
S31500000AB0FFF7BEFFDFF878032178007849074CBFBF
S31500000AC0E07060703078B9F8001080070AD52246C9
S31500000AD0BD4804F033FE8046307800F0FD0049271B
S31500000AE0307019E0B74800884FF6FC7290420ADA77
S31500000AF00B460146CDF8048000942A46002004F0F7
S31500000B00D6FF552707E00A46CDF80080234629463A
S31500000B1004F0B7FF42278046A87980064CBFCE4D29
S31500000B2042A503F025FF02460295CDF80480009702
S31500000B300220CA4BCA4903F03DFECA49022003F00F
S31500000B403FFEB9F8002001232146022003F032FFC0
S31500000B5098A1022003F02EFE4046BDE8FE83002049
S31500000B6090E70A460146B148006801E00021F8E72F
S31500000B7070B504460E462079010018BF01281546B7
S31500000B800BD1A0680078C00601D5300005D0A07B47
S31500000B90002804BFE07C0B2801D1002070BD8B49E2
S31500000BA000200880607DE17B00280CBF0820002023
S31500000BB011B900F0CCF906E040F0040000F0C7F9E6
S31500000BC0208A00F0D3F9A07C00F0C1F90B2000F0D8
S31500000BD0BEF9E07C00F0BBF9304600F0B8F92046DB
S31500000BE0FFF7D5FC2846BDE870404BE70022BFE77B
S31500000BF070B5044618469C4B8F4D1B78012B01D0CF
S31500000C002E7816B10020287070BD82F001020A43CA
S31500000C1001D1002070BD2BB10A460499234603F08A
S31500000C201CFD00B1012070BD0000000000000000A6
S31500000C3038B5D2885224950648BF4924550544BF85
S31500000C40083CE4B2150544BF083CE4B2120444BFB4
S31500000C50A41EE4B203284FF6FD7310D8DFE800F0B7
S31500000C600204080D0B460AE0C8B205F0AEFA02E02F
S31500000C70C8B205F0DCFC034601E0641EE4B2184687
S31500000C8003F007FD201AC0B232BDB0B504460D0010
S31500000C900EBF00202878FF28174601D12070B0BD6E
S31500000CA0284600F0CBF9874288BF07463A46691CBA
S31500000CB0601C00F093FE2770B0BDB0B50D00044671
S31500000CC0174603D1002060702070B0BD2878FF2839
S31500000CD002BF6878FF2820700CD0284600F0B3F9D0
S31500000CE0874288BF07463A46A91CA01C00F076FE3C
S31500000CF02770380A6070B0BDF0B5541E002B37D08F
S31500000D00052A48DA0025002600230CE0571EFF1AA4
S31500000D10FF000CFA07FC4CEA050511F80EC00CFAA8
S31500000D2007F73E435B1CDFB2974209D2DBB2A4EB66
S31500000D30030E00280CBF4FF0000C10F80EC0E5E7BC
S31500000D40042A0FDAD0000121D200401E9140494208
S31500000D5045FA00F2D20748BF0D4346FA00F2D00723
S31500000D6048BF0E43AE420FDBB54214DA10E05B1CFF
S31500000D70DDB295420FD2DBB2E51A00280CBF002681
S31500000D80465D4D5DB54201DA0120F0BDAE42EEDAB8
S31500000D904FF0FF30F0BD0020F0BD0021334A01E0E6
S31500000DA0891CC9B2535C8342FAD350184078704705
S31500000DB0000000005D00000052FE03201CF6032028
S31500000DC0AAFE03204AFE0320B8F603204CFE0320A9
S31500000DD028F603206018030050FE0320781603004F
S31500000DE090160300C4E3032098160300A016030020
S31500000DF0C0160300CC160300EC1603000C17030004
S31500000E002817030064F40320301703005817030063
S31500000E106817030060170300701703009417030098
S31500000E2078170300A018030094F60320B4F60320F5
S31500000E30E2E303209C170300A6FE0320EC17030041
S31500000E40C4170300E3E30320A7FE0320A8FE032044
S31500000E50A9FE0320F4170300401803003818030006
S31500000E601C18030050180300E1E30320C018030018
S31500000E70283808288041C00F704710B500F009F8DF
S31500000E80FF2801D1A32010BD002104F83010002056
S31500000E9010BD0446084600F025BC38B500F00BF836
S31500000EA0FF2801D1A32032BD294604EBC000BDE8CE
S31500000EB0344000F0D4BF04460846154600F012BC84
S31500000EC040B11C280CD01D280DD01E2818BF1F2885
S31500000ED006D00AE0A1F10B00102806D200207047C8
S31500000EE01B29FBDB01E00929F8DB8A20704710F09B
S31500000EF0E00011D0802806D0A02806D0C02806D051
S31500000F00E02806D007E01C2070471D2070471E20F1
S31500000F1070471F207047FF20704700F01F00704782
S31500000F2080B54E490020087005F0DCFD4C4908806C
S31500000F30522200214B4800F094FD4B4900200880C6
S31500000F400C22BDE808400021484800F08ABD10B5D3
S31500000F5045490A88522A07DA424CA054501C088098
S31500000F6080B22044401E10BD002010BD38B500F0F0
S31500000F700CF80546200AFFF7EAFF002D18BF0028E7
S31500000F8001D0284632BD002032BD0446C0B2DEE79D
S31500000F90B0B5354D2B880C46E11852290CDA314F85
S31500000FA001462246F81800F019FD288820182880E6
S31500000FB080B2001B3844B0BD0020B0BD70B500241F
S31500000FC05E18B2421D460DDA1A46294900F033F87A
S31500000FD0002070BD51FA85F303446D1E13F8013CE1
S31500000FE003EB0424EAB2002AF4D1204670BD0423A0
S31500000FF0E4E780B50223FFF7E1FF80B202BD2DE9E9
S31500001000F041144691420F461A4DDFF86C8028BF16
S315000010101A4A08D2C619304600F010F83818401C93
S31500001020844204DA164A00F005F8284600E0304605
S31500001030BDE8F0814146022003F0BCBB0078FF28E2
S3150000104008BF0020704780B502220021FFF7D1FFBC
S315000010504FF6FF71884208BF002002BDAAFE03209A
S315000010604AFE032028F603204CFE03201CF603202C
S31500001070140C03004EFE03202C0C03003C0C030052
S31500001080500C0300DFF81409DFF8141900880A6809
S31500001090DFF8101984B0ADF8060003A8026002A8B4
S315000010A00A68DFF8041902600020ADF80400DFF8D2
S315000010B0FC080088ADF802000020ADF80000022010
S315000010C008700020DFF8E8180DF10603DFF8E428C1
S315000010D01B5C02EB0012137003AB33F81030538025
S315000010E002AB33F81030938001AB1B5C93710DF1AA
S315000010F002031B5C01EBC30393601DF800301373FE
S31500001100401C012302285373DEDB04B07047DFF86E
S31500001110980800787047DFF89C1801EB0010407BB8
S3150000112000F001007047412818BF422803D0432829
S3150000113018BF442801D1012070470020704741287C
S3150000114018BF422801D1012070470020704743286C
S3150000115018BF442801D10120704700207047F8B518
S315000011601546069A04461E4600F022FA60B104218E
S3150000117000F0B2FB070007D0204600F0A3FC324681
S3150000118029462046B84790E0F1BD2DE9F04383B0EB
S315000011900446160098461EBF0A9F002F5FEA080005
S315000011A00D461DD038787188000730794CBF402233
S315000011B0802200F0FDF998B1082100F08DFB8146F0
S315000011C070B1307900F07EFC0B9801900097434691
S315000011D0324629462046C847BDE8F74300F07BBCA7
S315000011E0BDE8F783F8B5164605461A4600F0E0F95D
S315000011F0D8B1069C21000BD1022100F06DFB040042
S3150000120013D0284600F05EFC31462846A0470BE086
S31500001210102100F061FB070007D0284600F052FCC1
S31500001220224631462846B8473FE0F1BDF8B5154697
S3150000123004461A4600F0BCF908B98620F2BD0699A4
S31500001240002689B9202100F047FB07000CD0204674
S3150000125000F038FC0998089B079A0090294620461A
S31500001260B847064600F037FC3046F2BDF8B50446EE
S31500001270A568207800F026FC002612E02868F6B261
S31500001280142111FB06F147182078398803F0E4F998
S315000012900121384600F020FB01001CBF207888475A
S315000012A0761C2979F0B28842E8D3BDE8F14000F017
S315000012B012BC70B50024DFF8FC56DFF8EC6608E0D7
S315000012C0FFF729FF20B1E4B205EB0410FFF7CEFFCC
S315000012D0641C3178E0B28842F2D370BD10B50023A9
S315000012E001E0001D5B1C9CB28C4204D2048894422F
S315000012F0F7D1408810BD002010BD0288B2F57C4FA2
S31500001300A8BF00F00BB8DFF8B006081A0C2190FB56
S31500001310F1F082B20021DFF8A406DFE7DFF8A016BD
S31500001320401A142190FBF1F082B20021DFF89406F6
S31500001330D4E710B50C460188638899420DD1027B2B
S3150000134023791A4209D0B1F57C4F04DBFFF7E6FF9B
S315000013502189884201D1012010BD002010BD10B5A1
S3150000136014460A88E3889A420AD10288B2F57C4F6D
S3150000137004DAFFF7C2FF2189884201D1012010BD9E
S31500001380002010BD2DE9F74F04469B460025002698
S3150000139003E0C0884519ADB2761CDFF80C16097853
S315000013A0F0B2884280F0D080F6B23101DFF8040650
S315000013B0DFF800260844515C227880689142E8D123
S315000013C000903046FFF7A7FE0028E5D04FF0000A50
S315000013D005E0B8F80A004519ADB20AF1010A00990C
S315000013E009795FFA8AF08842D6D200985FFA8AFABB
S315000013F00068142111FB0AF100EB01082146404662
S31500001400FFF797FF0028E4D04FF0000908E038798D
S315000014103021084202D1F8782D18ADB209F1010940
S31500001420B8F808101FFA89F08842D6D2D8F8040016
S315000014301FFA89F90C2101FB09F1471822463946A2
S315000014404046FFF78CFF0028E1D0019800B1076005
S315000014503879800611D5DFF86005002106E00279AB
S31500001460920602D5C278891889B20C30B842F6D3F2
S31500001470DFF8540500EB010A03E0DFF8500500EB46
S31500001480050A0C9D280018D0029E00F060F802465E
S315000014903B8861882078DFF8389503F0D7F8E8B103
S315000014A03879C0061CD500F052F803460298009021
S315000014B03A4661882078C84747E00298002844D019
S315000014C05646824600F043F802463B8861882078FB
S315000014D0DFF8009503F0B8F80028E1D17E2034E06B
S315000014E097F80280BBF1000F0CBFFC785C464046C3
S315000014F0FFF725FE30B1621ED2B231465046FFF7E5
S31500001500C4FB1FE04046FFF722FE30B1A21E92B296
S3150000151031465046FFF7D1FB14E03DB9BBF1000F51
S3150000152004D0F878834538BF89200ED3002E224692
S3150000153004D10021504600F094FA03E031465046AB
S3150000154000F04CFA002000E08620BDE8FE8F394608
S315000015504046D2E660B5002503E01E7B360616D46B
S315000015606D1C0679EBB2B34213D20368EDB21426B2
S3150000157016FB05F633441E888E42F1D1160006D0BE
S31500001580802AEAD0402AEBD11E7B7606E8D518469B
S3150000159060BD002060BD80B5002201E080B540221C
S315000015A000F006F800B1012002BD80B58022F7E701
S315000015B038B50C46154600F095F8FF2801D10020F5
S315000015C032BD04E038B50C46154600F08DF8DFF85C
S315000015D0E43303EB00102A4680682146BDE8384014
S315000015E0B8E74022FFE72DE9F04780468946924654
S315000015F0FFF7DEFF002508B9FF2019E00026DFF817
S31500001600B473DFF8A44300E0761C2178F0B2884278
S315000016100DD2F6B23001385C404508D052464946F4
S31500001620FFF7D0FF0028EFD06D1CEDB2ECE728469F
S31500001630BDE8F08730B50022DFF8783300E0521CB1
S31500001640DFF864532D78D4B2AC420CD2D2B2140176
S315000016501D5D8542F3D10D0003D01C44647BE40775
S31500001660EDD5104630BDFF2030BD80B50021FFF717
S31500001670E1FFFF2801D1002002BDBDE802404AE596
S3150000168070B50E4604460021FFF7D4FFFF2801D1AE
S31500001690002070BDDFF81C1301EB00153200687BDB
S315000016A000F0010114BF40F001000020B142687350
S315000016B016D086B12846FFF7D9FD11E00068F6B2CC
S315000016C0142111FB06F10844761C017BCA09018826
S315000016D0204600F01DFCA8680279F1B29142EDD3D4
S315000016E0012070BD0121A5E70021A3E7DFF8C412A0
S315000016F00001085C704738B50C46FFF7F3FF01465A
S315000017000020FF291FBFDFF8AC2202EB0111896818
S31500001710002916D0002203E01B0648BF2846521CAB
S315000017200D79D3B2AB420BD20B68D2B2142515FB9E
S3150000173002F52B44451C1B7B002CEDD05B06ECE729
S31500001740C0B232BDF8B50C461546FFF7CBFF0146D1
S315000017500022FF291DD0002301E0521C5B1C954886
S3150000176000EB0110DEB280680779BE4211D2006834
S31500001770DBB2142616FB03F630442F00067B02D09C
S31500001780760602D4EAE73606E8D5D6B2A642E4D112
S31500001790F2BD0020F2BD002109E010B5044601218A
S315000017A000F005F82046BDE8104003F093BD2DE992
S315000017B0F34F87B003F0B3FC069000247A48DFF8B5
S315000017C0F481007805909DF81C00019000E0641CEF
S315000017D00599E4B28C427BDA0199FF2907D09DF87E
S315000017E01C00FFF77FFF0446FF2C06D170E008EBD4
S315000017F004100699007B8842E9D14FF0000A4FEAAF
S31500001800041901E00AF1010A08EB09005FFA8AF1FE
S3150000181080680279914257D200685FFA8AFA1421E9
S3150000182011FB0AF145182889B0F5967FC8BF05F067
S31500001830C4FB002613E00120009000235A46002135
S3150000184002A8FFF79FFD9DF8200038B1BDF80A20D9
S3150000185018F809103B46584600F03DF8761C2989D1
S31500001860B0B28842CED26868B6B20C21714347182E
S315000018703879C006F2D418F809008DF80800394600
S315000018802888ADF80A00387940064CBF80204020F1
S315000018908DF80C003888ADF80E002846FFF72DFDB0
S315000018A0ADF810003979F878490706D5D7F808B0A9
S315000018B00328C0DBDBF800B0BDE70328B4BF07F19F
S315000018C0080BD7F808B0B6E70198FF283FF47FAFBA
S315000018D009B0BDE8F08F704730B5047B01220023C4
S315000018E00C4205D1002030BD144218BF5B1C5200CB
S315000018F0D5B28D42F8D30069DBB250F8230030BD73
S315000019002DE9F04F0C4601210028607D4FF0000CB8
S3150000191008D0050008BF4FF0020E09D0012805D1F6
S315000019208E4605E010B94FF0080E01E04FF0040EA8
S3150000193009980A9DDDF82C90DDF830A0E046264F88
S3150000194007EB8806378897421FD1F77817EA0E0FFC
S315000019501BD0B7784F4518D396F803B0E77B5FEAFC
S31500001960CB6B01D50FB910E07FB9E24501D08445B4
S3150000197001DB00210EE0B77803F80C700CF10106CC
S315000019802F887F1C2F801FFA86FC08F10108B8F10A
S31500001990350FD4DB0846BDE8F08F00007221030046
S315000019A0DCEB0200E0EB020096FE0320742103004C
S315000019B0ECEE020064F40320C0EC020000EF02002B
S315000019C0D4ED0200FCEE0200A0F4032084F4032010
S315000019D07F4600007B460000ECEB0200814233D2DA
S315000019E010441144401E491E10E011F8013900F858
S315000019F00139121F11F8013900F8013911F80139BE
S31500001A0000F8013911F8013900F8013992B2042AB7
S31500001A10EBDA93B2002B1EBF11F8013900F8013939
S31500001A20521EF6D1704711F8013B00F8013B121F18
S31500001A3011F8013B00F8013B11F8013B00F8013BAE
S31500001A4011F8013B00F8013B92B2042AEBDA93B29B
S31500001A50002B1EBF11F8013B00F8013B521EF6D1C8
S31500001A607047130003D00A46194605F0C7BA7047F7
S31500001A7010B500E0521E93B223B100F012F8F9D06F
S31500001A80181B10BD002010BD10B500E0521E93B209
S31500001A902BB100F006F8F9D0181B40B210BD00209B
S31500001AA010BD10F8013B11F8014BA342704700002E
S31500001AB00C490D4808600020704700B1702070473F
S31500001AC00020704780B500F013F8FF2801D1A3204D
S31500001AD002BD002002BD00207047704700BF0348CA
S31500001AE0007870477CF603207621030064F4032017
S31500001AF080B5FFF7F7FDFF2818BF002002BD0021C3
S31500001B0001707047007800B10120704700F0A7B956
S31500001B1000F0B3B92DE9F74F03291C4603DB20007B
S31500001B200AD0052904DA9349022002F043FEAAE00E
S31500001B3042F004008DF8080002A8FEF791FF009914
S31500001B409DF8080008700125200005D00098447013
S31500001B50200A009988700325FEF753FF009948551F
S31500001B60691C009A0C9889B24D1C50544FF0000A1B
S31500001B70DDF8389007E0009B41465819FFF72EFF25
S31500001B8065190AF1010A0D985FFA8AFA10F80A70C7
S31500001B9038007AD00026742F4FF0000BB04637DAA3
S31500001BA04C2F59F8048B1CBF532F622F14D159F8B0
S31500001BB0044B4C2F07D1A4B2A3464FF6FF708345C2
S31500001BC034D0022632E0532F30D15FFA84FBBBF1CA
S31500001BD0FF0F2BD0012629E06C2F04D14046FFF7DA
S31500001BE032FA841C22E0732F04D14046FFF726FA0E
S31500001BF0441C1BE0A7F130000A2838BFA7F13004C7
S31500001C0014D3A7F14100072821D2A7F137040DE02C
S31500001C100024752F08BF012606D0762F08BF02269E
S31500001C2002D0782F0FD1032659F804BBA4B222465E
S31500001C30BDF8040012FA85F17118884214DA3B46A1
S31500001C40B2184D491CE0772F08BF0426ECD03A465F
S31500001C504A49022002F0AEFD15E0009901F805B0F0
S31500001C606D1C4FEA1B2B761EF1B20029ADB2F4D1E2
S31500001C70002C86D0B8F1000F7FF47DAF3B4640497B
S31500001C80022002F097FD002000E0A8B2BDE8FE8F1A
S31500001C9010B53C4C20603C4801803C4802603C4802
S31500001CA0036010BD3EB500920C4606A9024602919D
S31500001CB0019300233448018832480068FFF72AFF61
S31500001CC005463248006805804FF48A51304800685E
S31500001CD04480C180801DFEF7ABFE28463EBD03460C
S31500001CE0284802682948006801882948006803F0E6
S31500001CF00ABF0020F3E700910293019221490B6885
S31500001D00224909680A8822490968704700B583B0E4
S31500001D1001921C4A126800921C4A126813881C4AD7
S31500001D20126803F0C4FE0EBD0022EFE780B50091F5
S31500001D30FFF7E4FF03F0A5FE02BD0021F6E71FB59D
S31500001D40104C24680394114C246824880294069C41
S31500001D5001940F4C24686488009403F008FF04B0D3
S31500001D6010BD0B4800687047094A1368187110685F
S31500001D704171704704060300480603002C06030061
S31500001D807C06030060F5032048FE032064F503206B
S31500001D9068F5032038B504460D461046FFF78DFE5C
S31500001DA000202070A847BDE83140FFF794BE00220E
S31500001DB049494A48EEE7002249494A48EAE770B5E8
S31500001DC0044616460D463046FFF77CFE002020707E
S31500001DD03046A847BDE87040FFF77DBE0122424964
S31500001DE04248ECE7022240494148E8E701224149DE
S31500001DF04148E4E702223F494048E0E780B5012038
S31500001E0005F041FA3E4805F0D6F93E49087001BD95
S31500001E1080B505F049FA012805D03A480078BDE8B2
S31500001E20024005F0B0B901BD30B5002400E0641CE5
S31500001E30354D2D88E3B2AB420FD2E4B20C25334BBD
S31500001E4015FB04F52B441D78854201BF5D888D4244
S31500001E501D799542EBD1184630BD002030BD80B5C6
S31500001E6019B905F00FF9002002BDB1F1004F02D2F9
S31500001E7005F012F9F7E7022002BDB1F5000F3CBFED
S31500001E800902FFF7ECBF0220704770B504461D46F5
S31500001E90FFF7CAFF06000ED02046FFF7E6FB50B15B
S31500001EA0B0682946FFF7DBFF28B9049870710598DA
S31500001EB0B071002070BD022070BD1CB500931346A2
S31500001EC0049C01940022FFF7E0FF16BD80B50023B5
S31500001ED00093FFF7F2FF02BD593B0100F4F3032024
S31500001EE021330100FCF303201BD20100E4F303209D
S31500001EF0ECF3032065D3010004F403200CF4032063
S31500001F00A8E6020094FE032096E3032048E003209F
S31500001F1080B5FFF789FF20B180680021017000209D
S31500001F2002BD022002BD0022F2E7000080B500F0EB
S31500001F3095F8BDE8014096E0FEB5044602F086FA43
S31500001F400646204602F090FA00229DF8001006424E
S31500001F5003D186F00103184301D101980278204687
S31500001F604FF6FF7506B321281EDA4223022A424E97
S31500001F7009DA5A43324432F81030AB4214D05B1CB3
S31500001F8022F8103010E00FD1002206EB400703FBC9
S31500001F9002FC37F80CE0AE451CBF0EF1010E27F827
S31500001FA00CE0521C022AF2DB344F354B37F8102076
S31500001FB033F810C09445B641F643F60FAC451CBF46
S31500001FC00CF1010C23F810C00928B7F814C018BF8B
S31500001FD00B2807D19F8A01EB070EE64510DAC919CF
S31500001FE099820FE01D280DD1B3F83AE07F8F8E4419
S31500001FF0BE4505DA33F81070C91923F8101001E050
S31500002000A3F814C033F81000904203D316B9204643
S3150000201002F04DFB00261B48815DA14204D0761CD0
S31500002020F6B2112EF8DBF7BD112E16DA03F079F8A9
S31500002030044615480078844203DBCE21134805F098
S315000020403DF92221124811FB04F1084430F816101C
S31500002050A9421CBF491C20F81610F7BD50220021CA
S315000020600748FFF7FEBC5022FF210448FFF7F9BCE2
S31500002070024A22F8101070472CF30320B8F203200E
S3150000208068F2032034E30200CEE3032024E30200D7
S3150000209008F3032015E02F480078704710B52E4C42
S315000020A0207860B900F00DF805F01DFA01212170C5
S315000020B028B10188B1F5817F24BF007D207020788A
S315000020C010BD10B5234C207840BB05F0EDF9024653
S315000020D02249012002F06EFB01202070204C20785E
S315000020E0FF281BD105F0FFF9B8B140880006400E65
S315000020F000F0010020701022FF211A48FFF7B1FC02
S31500002100207801280AD1FFF7C9FF032806DBBDE8BE
S315000021101040B621144805F0D1B8207010BD80B526
S31500002120FFF7CFFFBDE8014005F0DDB970B5044605
S315000021300D461646FFF7C5FF324629462046BDE83E
S31500002140704005F002BA80B5FFF7BBFFBDE801405D
S3150000215005F00ABA8CFE03208DFE0320C0DF0200C4
S31500002160C2E30320F8F10320B4DF020000B5A1B0FA
S3150000217080787D22694604F0C2FD01001CBF6946D5
S3150000218003F0BBF921B000BD38B50A46014610463A
S3150000219005F0F5FA0446FF2C01D1182032BD06F0F1
S315000021A00BFA0546204605F067FA284632BD80B58B
S315000021B003F0A6F8BDE80240012010B5040014BFE4
S315000021C00848002006F0F9FA50B1002CBDE810408E
S315000021D014BF054A054A03460549042002F0EABA37
S315000021E010BD0000C4C70200ACC70200B8C7020099
S315000021F080C7020080B500F017FDF0B1DFF83C198A
S31500002200042002F0D7FADFF8380906F031FE0B2079
S3150000221007F06AF9DFF8800A00680078012808BF2D
S31500002220022006F0CAFD032002F0DEF900F0DAF81B
S31500002230BDE80240022007F099B901BD80B5002033
S3150000224007F070F9BDE80140D4E7F0B5044683B065
S315000022500E46E0894CF25E01884204BF208AB0F542
S31500002260805F154601D00020FEBD2078002854D19D
S31500002270207D800751D5072E4FDB2878AF7840B1F7
S31500002280112802D1032F04D147E0192808BF032FD4
S3150000229043D1324603212846FEF7A9FE022F06D077
S315000022A0032F0CD0062F1CD0072F2DD035E0082E7B
S315000022B033DBEA790146601C00F0DAFB2DE00A2EDA
S315000022C0A1BF697A0A010A32964226DB05F10A02A3
S315000022D0019200912B7AEA790146601C00F032FCEB
S315000022E01BE0092E19DB324607212846FEF781FE40
S315000022F0044607F014F9022802D100F095FC60B1FB
S31500002300204602F0E9F908E000F09AF8012804D026
S3150000231000F08AFC08B900F08BF90120FEBD5EB51D
S31500002320DFF87869DFF878193388044600F02FF86B
S3150000233030888F2108421DD0902C02D1BDE857402D
S3150000234029E004F0D3FB012820D000F09EFDE8B977
S315000023503088DFF85039DFF85029DFF8501902903D
S315000023600194DFF84C09009000F032F9BDE85E40B8
S31500002370022030E1800504D5912C07D1BDE85740F5
S315000023806AE12046BDE85E4007F0C1B957BD224666
S31500002390012002F00FBA10B5DFF80019DFF8144972
S315000023A0002088B0088001A9684604F04FFD9DF81A
S315000023B00F00A0700822BDF80C00208001A9201D86
S315000023C0FFF70CFB9DF814006073DFF8EC0801784A
S315000023D008000CBF0022DFF8E428204607F0A8FA20
S315000023E008B010BD70B590B005A8DFF8D418282243
S315000023F007F0FEFA04F07AFB08B100201EE001A8FF
S3150000240002F0DDF80400DFF8BC58DFF89C6804D061
S3150000241000943246DFF8B0380CE005A802F05DF90A
S3150000242005A901A806F096FC040006D000943246E1
S31500002430DFF89838294600F0CBF8204610B070BD7A
S3150000244080B5684604F00CFD93280AD1DFF84808E9
S31500002450006800788DF80000012804BF02208DF87E
S3150000246000009DF8000002BD70B58CB004460D4614
S3150000247016462C2200216846FFF7F3FA8DF8024033
S31500002480ADF8006001A807F00AF98220ADF8260031
S31500002490FFF7D6FF8DF82800FFF7A4FF2946684608
S315000024A006F05EFB04462346DFF82428DFF82418EE
S315000024B0FFF76EFF20460CB070BD2DE9F046DFF841
S315000024C0DC67DFF814183388DFF8DC97044685B03C
S315000024D0FFF75DFF307870258F21084206D04A4607
S315000024E0DFF8F817042002F065F937E0FFF77AFF06
S315000024F0684606F0CEFF0098DFF8E4A740F08000BB
S315000025000090684606F0CFFF06F0F9FFDFF8D41713
S315000025100870FFF795FF0546DFF8CC070768DAF87D
S31500002520000038B1082C02D006F0C3FF10B9DAF863
S31500002530000007432A460021384606F042FC0546BD
S3150000254008B934800AE001954A46DFF8A007DFF8AB
S315000025505437DFF89C17009000F03AF8284605B08B
S31500002560BDE8F0860120A8E70220A6E70420A4E73C
S315000025700820A2E7022006F0D5BF012006F0D2BF50
S31500002580002006F0CFBF10B5DFF8104720788F2166
S31500002590084282B018D0DFF85C07DFF80837DFF8AA
S315000025A00827DFF85417009000F012F8208841063B
S315000025B003D5BDE8164000200DE040F02000208045
S315000025C0BDE8134007F0FDBA13BD00902A46414608
S315000025D0042002F0EFB8DFF8C41610B50446002058
S315000025E0088082B0DFF81407017869B10021017014
S315000025F0DFF8C00690F8290001281CBF002006F06D
S3150000260037FC002000F011FADFF8D806007801F058
S3150000261024FE40B10090DFF8E836DFF88C26DFF8BC
S31500002620E416FFF7D5FF2046BDE8164007F08EB941
S3150000263080B5DFF86806018841F40071018007F073
S315000026408CFD40B10246DFF8C016042002F0B2F855
S31500002650BDE8014000E001BD80B5FF20FFF79DF811
S31500002660FF2001F0F5FFFF2001F0F5FFFFF7C2FDA7
S3150000267002F036F8DFF824160020088001BD70B598
S3150000268004468CB094F8280030B90022DFF87C1696
S31500002690012002F08FF83BE001A804F0E1FB0546BB
S315000026A002A807F0D7FFDFF8F4653088BDF80830D8
S315000026B09DF80420DFF858160090012002F07AF801
S315000026C030880921084218BF932D11D0BDF80800A3
S315000026D080071FD405A9684604F0B8FB28B908226C
S315000026E0211D05A8FFF7C4F9A0B1DFF828160DE0F3
S315000026F0C0070FD5932D0DD1FFF7A2FE02281CBFF0
S3150000270094F82800022805D0DFF80C1600F053F8DC
S31500002710002000E001200CB070BD2DE9F041DFF88B
S315000027207C55064682B0288800900C4696F82830DC
S31500002730B278DFF8EC15012002F03CF828788F21FA
S31500002740084236D03046FFF79AFF70B3684608F065
S315000027500AFE2878DFF85C85DFF8C075C00609D563
S3150000276097F900309DF900104246304600F066FAAF
S3150000277001281EDB2C2231464046FFF72FF9DFF8F1
S3150000278038650020307044B110222146DFF82C0550
S31500002790FFF724F93078401C30709DF8000038703F
S315000027A0288840F01000288003E0DFF8781500F054
S315000027B002F8BDE8F381012001F0FCBF2DE9F043EA
S315000027C0DFF8D84421888F22114283B071D041F0BE
S315000027D0400102002180DFF8D054DFF8C86408D039
S315000027E0009033462A46DFF81C15FFF7F1FE042059
S315000027F05CE0880605D5DFF83015FFF7DCFF002022
S3150000280054E0C80648D5DFF8AC74DFF8E484B8783D
S3150000281006F06AFE38B101903346DFF81005FFF77F
S31500002820D4FE012042E02078032108421CBF97F81D
S315000028302900012840F6B83915D0DFF8F414FFF75F
S31500002840BAFF484606F014FB002000F0D5F850B158
S3150000285001903346DFF8DC04FFF7B7FE20788007E7
S3150000286048BF062022D4DFF8D004008800F0DDF847
S3150000287050B101903346DFF8C404FFF7A6FE207876
S31500002880400748BF072011D4494603B0BDE8F043CE
S31500002890DFF8680404F000BCDFF8A404DFF858147D
S315000028A0009033462A46FFF793FE0320BDE8FE4319
S315000028B091E603B0BDE8F043DFF88814012001F08B
S315000028C079BF10B50446DFF80824DFF87C14012030
S315000028D001F070FF2046BDE810406FE710B50446D2
S315000028E0DFF8B80300788F21084209D02288DFF884
S315000028F05C14012001F05EFF2088DFF8B81388849D
S3150000290010BD80B501462C22DFF8A803FFF766F854
S31500002910DFF8A413002008708020DFF880130880F9
S3150000292001BD2DE9FC41DFF8D413DFF87043002028
S31500002930087001202288DFF8181401F03BFF207888
S315000029408F21084256D0002000F06FF82088DFF86B
S31500002950A043D54DDFF84C83D64FDFF88863C10717
S3150000296018D500F061F908B93078B870FFF73AFD6C
S31500002970384606F046F907003CD0BA2808D0019040
S315000029804346DFF8D00300902A462146FFF720FE93
S31500002990052026E0000727D53869009065A30722A1
S315000029A000F03EF84CF25E0000904FF6FF720023F6
S315000029B007F11C011046FFF7C2F9070006D0009781
S315000029C02A46DFF89433BF49FFF702FE67B1DFF806
S315000029D08C030090019743462A462146FFF7F8FDEF
S315000029E00820BDE8F641F6E5307801F036FCBDE892
S315000029F0F341D0E4BDE8F3811CB5AE4C01904EA383
S31500002A0020690090022200F00BF800F022F8040082
S31500002A1004D000940420D24B00F026F8204616BDC0
S31500002A204FF480511120FFF73DB91CB5A14C019020
S31500002A3097A3206900900622FFF7F2FF00F009F83D
S31500002A40040004D000940420C64B00F00DF8204684
S31500002A5016BD4CF25E0000904FF6FF72002304F1A3
S31500002A601C011046FFF76BB98F4A964901F0A2BECA
S31500002A702DE9F04F85B080460F461546FEF747FB19
S31500002A80064602950196009782A303224FF48051D1
S31500002A901920FFF707F903A804F0D4F9B249B3489F
S31500002AA00988084400904CF25E070020FEF74FFAB2
S31500002AB01DE0082103A8FEF76BFA5046FEF747FA19
S31500002AC05846FEF753FAA088FEF750FA4846FEF736
S31500002AD03EFA504601F0FEFDFEF739FA2846FEF7AB
S31500002AE036FA009800990078401C08706D1CEDB20B
S31500002AF0B542BEBF00990978042911DA9C4901EB59
S31500002B000514284694F80690FEF7F0FD82466948BB
S31500002B1090F8260000064CBFB4F802B0BB46C8E7E2
S31500002B204FF6FF720097002341461046FFF707F95C
S31500002B3077E0000077000000777500006CBA0200AD
S31500002B40E09304002DE9FC4F83B000269DF8382061
S31500002B501201ADF80020694A12786AB1554B1A691C
S31500002B608A4209D10146082203F11C00FEF780FFC4
S31500002B70441EA441E40F00E0002400253DE00F9828
S31500002B800F99BDF80020B6B23044019006F1080056
S31500002B9080B2461C0F5C0F98B1B2FEF72AFA804647
S31500002BA0B61CBDF800200F98B1B2FEF722FA814696
S31500002BB0B01C0F9980B211F800A0401C80B2861C90
S31500002BC011F800B0C4B13C480078A8B901993B4857
S31500002BD00822FEF703FF38483849007801EB001158
S31500002BE00F72A1F80A80A1F80C9081F80EA081F866
S31500002BF00FB0401C304908706D1CE8B29DF83810C3
S31500002C008842BCD36CB12C48007850B99DF80C00B2
S31500002C1038B19DF8100005B0BDE8F04F0818C0B2F5
S31500002C20EAE605B0BDE8F08F00B585B0684606F067
S31500002C3030FC009800F0010005B000BDF0B500F1D1
S31500002C40260583B0287802F12607800638780C46D8
S31500002C501E4602D5800602D415E080060ED4787989
S31500002C600190009622466B794249022001F0A2FDAE
S31500002C707879697930186118814202DA4FF0FF30AD
S31500002C80FEBD884201DA0120FEBD0020FEBD000027
S31500002C9077760000777575007CF603200EFA032020
S31500002CA0A0BA0200F4BA0200ECBA0200CCBA0200E2
S31500002CB00CBB0200E4E5032064FE032048E6032083
S31500002CC01CBB020044BB020058BB020070BB0200E2
S31500002CD03CC0020088BB0200ACBB0200D4BB0200B1
S31500002CE0E4DD032065FE0320E0DD0320FCBB0200DB
S31500002CF0F0BB02001CBC020014BC020040E603202C
S31500002D0040BC020034BC02005CBC02008CBC020069
S31500002D10CCBC020008BD020048BD020066FE0320CE
S31500002D2088BD0200C4BD0200F4BD020024BE02003C
S31500002D3040BE020074BE020094E30320A0BE02005F
S31500002D40C4BE0200DCBE02000CBF020020BF0200AF
S31500002D5050BF020074BF0200D8BF020090BF02003D
S31500002D60A8BF0200C4BF02004CFE032028F60320C1
S31500002D7064F40320F8BF0200DFF8182C12681278FA
S31500002D8082420AD019B1012A03D1022805D00020B7
S31500002D907047022A08BF0128F9D101207047DFF8E1
S31500002DA0F81B8875704710B5DFF8E84B2068407B44
S31500002DB0112805D040F203110FF20C0004F07EFA40
S31500002DC021684120487310BD6173736F6369617434
S31500002DD0696F6E2E6300000080B5022002F0A7F92D
S31500002DE002F0AEF900F0E6FB042805D1DFF8A80BE7
S31500002DF0417D491D417505E04FF47A71DFF89C0B62
S31500002E0004F04AF9BDE8014002F09BB910B5DFF8BD
S31500002E10884B0020E0742078FF2803D004F02CFCB7
S31500002E20FF20207010BD70B582B004460D4604F038
S31500002E30ADFB0646B01D08F0BDFA00F44040B0F503
S31500002E40404F0CBF062000203118097C4A00490873
S31500002E5002F00E0201F038018918401800F111063F
S31500002E60DFF8FC0B0068005DF6B286420BDA831BC6
S31500002E70DBB20F2BA8BF0F2300200090324621465D
S31500002E80284604F098FC304676BDDFF8080B00684B
S31500002E90407B33281CBF4328532801D101207047AB
S31500002EA0002070471FB5012008F0B2FA08F0B5FA05
S31500002EB008F0CEFCF0B1DFF8E04AA07910B104F1D9
S31500002EC00A0005E020786946FFF7ADFF0DF1030023
S31500002ED0DFF8C82A00211170617901F013F9FFF7B4
S31500002EE095FF00F008F80AF00CFB08F0E7FA01205D
S31500002EF001F035FA1FBD10B500F0C0FD017B0329B6
S31500002F0018BF042905D1408801F000FA08BF032044
S31500002F1008D001F0B7FA044601F0B8FA214603F0EA
S31500002F2014FB022001F0BAFA0AF030FC00F09AFD18
S31500002F30BDE810400AF011BB38B5DFF85C4ADFF88F
S31500002F40545AA075FFF762FF00214FF6FF7001F09B
S31500002F50CFF92868417B032918BF00291ED03329E1
S31500002F6018BF432914D101F072F92868017B03299F
S31500002F7018BF042906D103214173A07DBDE8324064
S31500002F8002F038B9A07D02F035F9BDE83140B2E76C
S31500002F9021214173BDE8314007F038B931BD10B584
S31500002FA0DFF8F019DFF8F0490968002048734FF69A
S31500002FB0FE700AF0EDFE4FF6FF700AF0F1FE01F02A
S31500002FC046F9A07DBDE8104002F014B910B50446DC
S31500002FD02346182201F03DF9DFF8AC0A0021017101
S31500002FE014B1FF2C02D10121017007E0012100F884
S31500002FF0041BA100491C090204F04EF800F032FD42
S31500003000002010BDDFF8801A00200871DEE730B519
S315000030100D4689B0044668690FF290110790234661
S31500003020287C06901622E8890590287B0490E87A89
S31500003030039095F90A00029028890190009501F005
S3150000304000F8287B00280CBF4FF6FE700AF09CFEA5
S315000030502B46224609B0BDE83040014601202DE945
S31500003060F041DFF8304980462068407B00280F4653
S3150000307016461D4649D1300047D0052E45DA00F0E8
S315000030809BF842D102F05EF800283ED102F05CF8CF
S3150000309008B1042E39DB287B032816D14FF6FE70C3
S315000030A0874214D1012E08BF002710D0022E2CD142
S315000030B00AF06AFE4FF6FC71884202DA0AF064FEF4
S315000030C001E00AF026FF074601E0012E1DD0B8F107
S315000030D0000F0CD0287B03280CBF01210021012EF4
S315000030E00CBF0120002007F0D4FA01005CD129466C
S315000030F0384600F0C7FF010056D102F01DF802F075
S3150000310002F820B102F020F808B170204CE02068E7
S31500003110DFF88478407B33281EBF53280020F875DB
S31500003120304600F091FF387F20B102F00DF808B963
S315000031300BF081F8287B032803D12846BDE8F0412F
S315000031403FE00822294607F10A00FEF747FC287BE4
S315000031500328A8BF0020B874FFF758FE9420B8755E
S31500003160B87C216800280CBF012031204873012358
S31500003170002038752068817B4809020003D1BA7F98
S3150000318003FA01F108E001F01F0140F0180003FA0C
S3150000319001F1052241EAC061052006F06AFC010042
S315000031A002D0226800215173BDE8F0814242387096
S315000031B05742424257424400DFF85C0C00780B2825
S315000031C0704710B504460022082101F0E9F908B15C
S315000031D0012010BD0AF0D8FD00224FF6FF7100F065
S315000031E075FF217C204600F08DFF6269E189207C15
S315000031F00AF0FFFADFF89C070068007B012808BF89
S3150000320007F0D1FFFFF777FE002010BD38B5DFF8D5
S31500003210844701462068407B002802BFDFF8F80B90
S3150000322000780B2801D0702032BDDFF8705721B12D
S31500003230022205F10800FEF7D1FB684601F02FF8DF
S3150000324008B1932032BD9DF80030142201F001F838
S3150000325000F0A2FF010050D19DF8000000F0F4FE3E
S315000032602068007B012818BF022807D0032818BF52
S31500003270042825D1002001F04DF808B300F0A3FF83
S315000032802068007B032814BF04280BF059F8FFF7C9
S3150000329032FE01200BF07AF801002ED12068007B67
S315000032A0032818BF042827D1287A800724D50522A9
S315000032B0DFF8D017012000F034F801001CD032BD31
S315000032C02168132048730020DFF8CC160875012208
S315000032D02068817B4809030008BF02FA01F107D084
S315000032E001F01F0140F0180002FA01F141EAC06145
S315000032F00522072006F0BDFB002032BDFF2210E0AC
S3150000330038B504461046032818BF04280D4601D0D8
S31500003310022032BD00F098FE29462046BDE8344022
S31500003320ECE72DE9FC41804600F0A8FB0D46017B49
S315000033300129164627D0407B022818BF032822D130
S31500003340332001F0ABF82806DFF84C76400F14BFA7
S315000033500522BA7F2946052006F08BFB044698B95C
S31500003360FFF754FD0AF018FD38815FEA080014BF24
S3150000337002200120B87407F10A0000F0A8FF00201F
S315000033803875FE7500E070240194009543462C22A2
S315000033900FF20C0100F055FE2046BDE8F681000054
S315000033A0424244420000000038B5044604F0EEF8FC
S315000033B0054620460BF00DF82C18204607F0FAFFBC
S315000033C04FF6FF5101402046BDE8344007F0F9BFF3
S315000033D070B588B00C4616461D4630B920460BF02F
S315000033E0FDF803A90AF01DFF03A807218DF80810B0
S315000033F00190310A8DF80A1001200C998DF80B10F6
S3150000340000908DF80960042302AA012120460BF0E2
S315000034102EFA0646FF2E18D021460BF016F815B9DF
S315000034203046FFF7C1FF0D9808B930460DE020463B
S315000034300AF0F9FE18B130460BF0F0FB01E000F09F
S31500003440FAFD304604F018F9FF2008B070BD2DE9EA
S31500003450F24F84B0044616469B4600274FF6FF758A
S3150000346056B130460BF03FFA8046707840084FF070
S31500003470010A00F0010905E008460BF04EF8BA46CD
S31500003480B946804600F096F8032818BF042800F0D5
S315000034908E800BF101019DF81000C9B204F093FA79
S315000034A08346400800F001008DF808005FEA0B60D3
S315000034B000F0ABFC58BF4BF0800B022804D1DFF8BC
S315000034C0C8050078204301D1022722E040460AF0D1
S315000034D00AFCADF8000003219DF810000AF073FF06
S315000034E0050008BF0125BAF1000F03D0301D07F013
S315000034F061FF01E0BDF800000146009501235A4630
S3150000350040460AF087FE05464FF6FF70854208BF23
S315000035100127E6B1200003D14FF6FF70854204D1A2
S31500003520301D07F047FF014600E0294601200190C3
S3150000353000974B462A464046FFF74AFF9DF808008B
S3150000354050B94FF6FF7140460BF05AFF04E03A4679
S31500003550294640460CF018FB4FBB9DF8080088B181
S31500003560414628460BF06DFFDFF828140968896A82
S315000035700E2212FB00F211444A7942F040024A71CF
S315000035800BF0ADFF9EB10AF0FFFBB9F1000F18BFBB
S31500003590002403D1002C14BF032401240146434612
S315000035A02A46204605B0BDE8F04F0CF03FBB05B0FB
S315000035B0BDE8F08FDFF8D4040068007B70472DE982
S315000035C0FC478046894601A8002101601646484608
S315000035D00AF009FF05465FEA0800DFF8807B08D09D
S315000035E028460BF080F9824628460BF071F904460E
S315000035F004E048460AF091FF82463C4600200090CF
S3150000360004233246494601A804F0D5F80DF1050019
S3150000361007F0D0FE81469DF807605FEA080006D0F5
S31500003620082239462046FEF723FA00286FD1D94FE3
S315000036303868C17E11B16978890713D55FEA080138
S3150000364010D0407B022808BF002E0BD148460AF056
S315000036509FFB09F056FF992300F0FAFD992001F02F
S31500003660C9FD54E000F0B4FF002818BF002E03D0B7
S315000036709420FFF761FC4AE000F0AAFF002846D03C
S3150000368050460BF051FDFF2818BF5FEA080104D130
S315000036903868408851460BF0D4FE0BF020FF38689E
S315000036A0BE4E41885246484600F010FD3868BA4C76
S315000036B0417B012916BF3129112143214173022083
S315000036C001F034FD40F6B831304603F0E5FC0AF06F
S315000036D037FE002060753868C17E19B9304603F0A0
S315000036E0D1FC11E0B8F1000F05D06978890702D541
S315000036F0FFF7D8FB08E0007B042805D105213046FA
S3150000370003F0CAFC09206075AD20FFF748FB01F005
S31500003710D4FCBDE8F3872DE9F04F8DB082460AF060
S3150000372062FE81460AF0A4FE039050460AF0F5FEBA
S31500003730804602AB052205A950460CF079FD022809
S315000037408DF80000019021D050460AF042FE039900
S31500003750914D904E08189DF808100F185046FFB26C
S31500003760394604F030F9FC1C01284FF6FF7B0ED0D9
S31500003770022813D0042800F0E98006281AD007286A
S315000037806CD0082827D07C2800F0AD80FEE03B46B0
S31500003790002251460020FFF75AFEF7E03068407BD2
S315000037A0012804BFA87C002803D13A465146FFF7FA
S315000037B006FFEBE040460AF02FFD014659451CBFC7
S315000037C040460CF0ADF93068407B022802D14046F5
S315000037D00CF054FDDAE0002007F01AFE791C00F028
S315000037E0DFF88146E1B200F0DCF80446B91D00F0CE
S315000037F0D7F807465F45EDD00AF0A2FD3068407B5A
S31500003800132808D100F0DFFC50460AF086FE014678
S3150000381020460BF016FE3068407B022818BF13289E
S315000038201BD138460AF0B4FA48460AF0B9FA002124
S31500003830002000F067FC4146204600F059FDE8787C
S31500003840DFF8A81B087000F00DF93068417B1329DA
S3150000385003D12321417306F0BEF997E003980121B5
S31500003860484403F08CFF0446002300222146012031
S315000038700CF005FD204603F0FFFE3068407B022871
S3150000388002BFDFF86C6B30790028E6D140460CF0B9
S3150000389005FD00287AD09DF8001005AA50460CF0C8
S315000038A0F7FC002872D00CF01BFD95F91D200121B4
S315000038B09140C1EB011189B290FBF1F201FB1200BC
S315000038C0451C002001F032FC0198012806D1307019
S315000038D00822414606F10C00FEF780F8A9B2301D19
S315000038E003F0DAFB52E0504603F050FEC01941786F
S315000038F0652904BF80786D2848D15949096811F8AF
S315000039000A10E0B2884241D20822414603A8FEF7D7
S3150000391065F86B460022E1B250460AF083FEA8BB6A
S315000039209DF80000FF2831D0DFF8CC4A0120207036
S3150000393001F001FC9DF8001003A80CF095FC01F0C5
S3150000394000FC002020709DF800001DE050460AF0A3
S3150000395003FE04460FF6E8200088ADF80A000223AD
S315000039600020019000900DF10A02012120460AF084
S315000039707EFF0546FF2D09D021460AF066FD00218F
S31500003980284604F031FB284603F076FE0DB0BDE86C
S31500003990F08F0000F8F90320B0E1032008F80320B7
S315000039A0C9B2504604F0C6B870B5022001F0BFFB9C
S315000039B001F0C6FBDFF86454DFF8406A0020287087
S315000039C007F046FF28B13068C07E10B9FFF76AFAE3
S315000039D03DE007F03DFFDFF8284A10B900F0F8FD9A
S315000039E058B1607D48B1C821284603F055FB607D7B
S315000039F0401E607504F0ECFB29E03068407B13281C
S31500003A0009D000F0E5FD30B93068407B11281CBFB5
S31500003A104328412803D1A07DFFF78EFA17E002283C
S31500003A2018BF032803D0002818BF21280FD100246F
S31500003A30DFF8D05907E001F083FB002000F08FFC8F
S31500003A4001F07FFB641C2978E0B28842F3D3BDE81D
S31500003A50704001F076BBDFF8A81900204875704762
S31500003A60D0E0032080B501F079FBFF281ABF064895
S31500003A7000780020BDE802400CF047B8DFF87C096A
S31500003A800068704700F8FF07FCF70320F8F90320E9
S31500003A902DE9F04F97B0804606A810210CF032FCB5
S31500003AA00DF1090305220EA940460CF0C1FB07469D
S31500003AB00026022FB24600F0A081404603F066FDC4
S31500003AC00446A01D07F076FC059004F1090007F0F6
S31500003AD071FCADF80A0004F10B0007F06BFC81469F
S31500003AE0DFF82409006810F808000190012F6AD158
S31500003AF001200490002706210EA879434418208847
S31500003B0002285CD1E07800F07BF91B2857D1E078D9
S31500003B10C11C00F076F9192851D1E078011D00F09A
S31500003B2070F94A284BD10525E0782818411C00F089
S31500003B3068F94FEA002BE078291800F062F958443A
S31500003B4080B2932800F03F0B1BD1E0782818801C28
S31500003B505FFA80F9002000900F234A46414606A8E6
S31500003B6003F029FE09F10F01C9B2404603F0E2FF56
S31500003B70064609F11101C9B2404603F0DBFF814652
S31500003B8016E0412814D1E078281800F039F9DFF85A
S31500003B907C180978401AA0F14D0ADFF86008006821
S31500003BA0007B032812BF04284FFA8AF00CF0BAFBF8
S31500003BB00BEB0500851C2179EDB28D42B4D37F1C39
S31500003BC0052F0BDA97E7CDF810A004F10D0007F0EA
S31500003BD0F1FB064606A94046FFF725F9F00B8DF8DE
S31500003BE0080000230D22414606200CF048FB06AFD4
S31500003BF0B878C0F3C3000390787800F00F040198FA
S31500003C00202800F002F9ACBF9DF8265000250228B6
S31500003C1014D1BDF80AB00AF0BFF883450ED10AA840
S31500003C2000F055FB0198202806DB08220DF11B0148
S31500003C300AA8FDF71DFF08B109F016FF0598B0F5B3
S31500003C40004F11BFB0F5624F26F4404040F6FF71B9
S31500003C50884269D101982028C0F2CF80002208212D
S31500003C600DF11B0000F09CFC00285DD16A4800782D
S31500003C7001283AD1019427229DF80800BDF80A30A0
S31500003C800FF2C071DFF8886700F0DAF9DFF8840711
S31500003C9000788DF82A008DF834408DF835500822CA
S31500003CA0BDF80A00ADF828000DF11B019DF80800CB
S31500003CB08DF82B000BA8FDF791FE01F03CFA306859
S31500003CC070B10DF1010007F04CFB684607F04BFBA5
S31500003CD09DF900209DF8011033680AA8984702E074
S31500003CE00AA803F001F901F02CFADFF81467307D19
S31500003CF0002819D100F06CFC002824D00120F074B3
S31500003D000022082106F10A0000F04AFC20B1BDF8A5
S31500003D100A003189884208D008220DF11B0106F1FC
S31500003D200A00FDF7A5FE002867D19DF8080028B90E
S31500003D3000F06BF8312818BF33285ED101212046E8
S31500003D40FFF71AF8002858D09DF81800002802BF7F
S31500003D5078780009022850D1FFF790FE017BBA78E7
S31500003D6002290CBF02F0040202F0800222B90229E5
S31500003D7043D04088484540D13078DFF89C76FF280C
S31500003D8014D0707985420DD1DFF8801696F90200BD
S31500003D9091F90010884209DB2FD170783978884272
S31500003DA004D32AE0281AC0B2812826DAFFF72EF8B3
S31500003DB086F80080404603F051FC387870700DF1AB
S31500003DC01B01DFF848060078B07003980F28B4BFCF
S31500003DD0401C0F20F07034717571A6F818900822F7
S31500003DE0BDF80A00308186F807A006F10A00FDF743
S31500003DF0F5FD049800B10120B07117B0BDE8F08F51
S31500003E00811CC9B2404603F0DEBDDFF8F00500684C
S31500003E10407B704700000000E8E3032008F8032019
S31500003E202DE9FF410546DFF8D845012020750E46ED
S31500003E30174605F00EF900281AD1A846B8F1010F69
S31500003E4018BF002D15D1009733462622ACA100F0ED
S31500003E50F8F801F070F9DFF8C40502681000394679
S31500003E60304601D0904701E003F05BF801F069F9B4
S31500003E70D5E0DFF888552868407B23280DD100F06F
S31500003E8001FB044600F002FB214602F05EFB022025
S31500003E9000F004FB07F012FBC1E0002FFCD1212843
S31500003EA01CBF0428532802D106F0B0F9B7E000F091
S31500003EB08FFB002800F092802678FF2E05D1E07C4B
S31500003EC000280CBFAB2094209DE02868007B0328C7
S31500003ED016BF0428012100212079FEF74DFF08B9FD
S31500003EE0982090E00CF035FE052130460AF06BFA7A
S31500003EF02968887301F0E1F8A07CF8B900F0F2F9BE
S31500003F0002462189208B0BF066FE00285DD19420A5
S31500003F10FEF745FF022001F009F92968DFF80005E0
S31500003F204A7B012A05D0312A12BF332A097B04298C
S31500003F304DD1C82103F0B0F803204DE009F024FF6D
S31500003F400646208B002100F0D3F900F041FB60B15A
S31500003F50300003D04FF6F870864206DB09F0D9FF31
S31500003F602968498888420646F8D0304609F010FF8D
S31500003F70207809210AF00CFA09F012FF06208DF8C4
S31500003F80080000F0AFF98DF8090002230020019027
S31500003F90009002AA2868408801210AF068FC0646BB
S31500003FA0FF2E12D02868418830460AF04EFAA07CCF
S31500003FB002281CBF3046FFF7F7F900F03CF8074629
S31500003FC0304603F059FB002FA1D194201BE04FF49B
S31500003FD0167103F061F80020607520E02868407BC8
S31500003FE0132816D100F0D0F8BDF8000009F0D8FE6D
S31500003FF000F0E9F82868017B032918BF042905D1D8
S31500004000332141739620FEF797FF08E0FEF773FF12
S3150000401005E0B8F1040F04BF30460DF0EDFB4FF498
S3150000402000600AF0F2F810B90DF06DFD08B104F069
S315000040302DF8BDE8FF810022002130460DF008BDB5
S31500004040009003200DF019BE38B5DFF8B0530446D2
S315000040502868017BA14203D00473204601F0C7F80B
S315000040602CB104F025FF2868007B042805D101F057
S3150000407031F8FF2808BF012000D00020BDE83240FB
S3150000408004F0CEBA38B50D46044695F90A0000F09C
S31500004090ABFA08B18B2032BDDFF860030268E97A1B
S315000040A091730068A97AC173204609F071FE4FF634
S315000040B0FE7084420CBF4FF6FF70288909F070FE2F
S315000040C02889DFF83C130881002032BD38B50C463C
S315000040D0154609F05DFE09F0EFFE2946204600F080
S315000040E007F9C7480178FF2918BFC07805D1FFF73F
S315000040F061FA01280CBF00200120BC49087031BDBF
S31500004100424242007FB504460D4600F03DF8BB4EE4
S3150000411094B1C44A0021284609F06BFB3068017847
S315000041208DF804100822007B8DF80500214602A8B0
S31500004130FDF754FC0DF048FE3068817B8DF80310C6
S31500004140C07B8DF8020009F027FEADF8000009F0EB
S315000041501BFEADF8060000F019F87FBDE0F803205D
S315000041601FB5044600F010F81CB100208DF80500BC
S3150000417007E009F009FEADF8060009F00DFEADF8FE
S31500004180000000F003F81FBD684635E01023072243
S31500004190694600200EF0A9B800B58BB0FFF7F4FF12
S315000041A0BDF80000ADF8180004A99DF803008DF8CD
S315000041B01B009DF802008DF81A00BDF80600FFF7F7
S315000041C061FF0BB000BD1FB5012000F0A3F8044647
S315000041D00DF005FEFFF7D8FF1CB900224FF6FF7160
S315000041E003E0FFF74BFC4188021DBDF80600FFF710
S315000041F06DFF0EF028F91FBD01461023072201208E
S315000042000EF073B838B5082000F091FF044600F0B0
S3150000421097FF7A4D844829680078887300F08EFFEE
S31500004220A04208BF00F01FFF00210020FFF76AFF31
S315000042309B2300F00DF89B2000F0DCFF286800218E
S3150000424020F8441F4180BDE8314000F07ABFA37DCD
S31500004250132268A103200DF010BD10B504460CF022
S315000042601DFAFF2801D18A2010BDFFF7CEFD0228D6
S3150000427018BF032801D0702010BD6B4804700820B9
S3150000428000F054FFFEF798FF01D03D2010BD6748AF
S3150000429003F069FE08B9A12010BD002010BD1FB5AE
S315000042A004466846FFF7A8FF9DF80500010008D000
S315000042B0052806DA514909689DF8042009789142D3
S315000042C001D0932001E02070002004B010BD1FB57E
S315000042D004466846FFF790FF082202A92046FDF72C
S315000042E07DFB1FBD454952480968097B405C704704
S315000042F0424A1368588019B90822181DFDF7B1BB48
S315000043000822181DFDF76ABBBDF808004FF6FF71BD
S315000043108842704710B504464148007AC00784B009
S3150000432007D500F011F8FFF7EFFF02D000F012F802
S3150000433008B1002006E024B1BDF808006946FFF781
S31500004340D7FF012004B010BD0A230A2269460120C6
S315000043500DF0CBBF0822FF21684600F021B970B5E9
S315000043602F4D0446287AC00784B00CD5234E3068FA
S3150000437041884FF6FF72914207D100220821001DA5
S3150000438000F00EF908B100201DE044B1022000F053
S31500004390CDFE4FF4F041284602F07EFE12E0306872
S315000043A04188ADF808100822011D6846FDF716FB86
S315000043B00A230A22FFF7ECFE02230B221D490020E6
S315000043C00DF093FF012004B070BD1B4A107048B178
S315000043D01A480088010005D04FF47A714143101D38
S315000043E002F05ABE7047144800787047C4FE032096
S315000043F014F8032042420000E4F70320F8F90320F2
S31500004400B0E10320CEE30320D0E00320AAFB032083
S315000044105CF80320ABFB0320A9FB032060F8032014
S3150000442008F8032000F8FF07B4FE03200542000049
S315000044307C1E0300B2FA032028F80320AEE3032013
S3150000444004600000425742420000000000210FF2C3
S31500004450E412535C834201D101207047491CC9B262
S315000044600829F6D30020704700210FF2D012535CC2
S31500004470834201D101207047491CC9B20829F6D3ED
S3150000448000207047684800684088704766480068A2
S31500004490001D704764480068C07E704738B5624D9D
S315000044A0624C296848730228614915D12868007B47
S315000044B004281CBF084602F0E5FD2868007B032897
S315000044C01EBF0428204602F0DDFD28684069C000B2
S315000044D054BF9024BC2405E000200870207091246D
S315000044E00DF0CAFF204604F0DBFA50B9234613222A
S315000044F04CA103200DF0C1FB2046BDE8324000F080
S3150000450079BE31BD48480068407B00F00F00704717
S3150000451045480068407B00F00F00022801D10120C9
S3150000452070470020704738B50446FFF7F1FF3E4D4F
S3150000453028B92868407B032801D0932032BD09F0B2
S315000045402BFC20812868C07BA0722868807BE072E3
S315000045502046FFF7BCFE0020207304F1140104F18D
S31500004560100009F01CF9E081002032BD70B52E4D17
S315000045702E680C46FFF7CCFF20B9707B032801D0CC
S31500004580932070BDF07B20702868807B0BF09BFF2A
S3150000459060702868807B00F01F00A070002070BD4E
S315000045A010B5002300E05B1CDCB28C4205D210F88B
S315000045B0014B9442F7D0002010BD012010BD80B5FC
S315000045C008210BF0BDFE08B1002002BDA52002BDEA
S315000045D015480068407B01281CBF3128332801D1CB
S315000045E0012070470020704710B504460CF015F8FE
S315000045F0010002D10C490968CC7310BD0A48006855
S3150000460090F90F00704708480068807B70470120CA
S31500004610704705480068807B400918BF0120704735
S315000046200000000042420000F8F9032044FA03208B
S315000046304CFA03200001020304051D2002030405B1
S3150000464008090A0B012070470120704701207047B6
S315000046507047B520704770477047002070470020AC
S3150000466070470020704700207047002070470020E8
S3150000467070470020704700207047012070470120D6
S3150000468070470020704700207047002070470020C8
S315000046907047002070477047002070477047002021
S315000046A07047B520704770470020704770477047C5
S315000046B070470120704770477047002070470448D4
S315000046C000680078012808BF02207047000000003B
S315000046D07CF6032000207047704770470120704722
S315000046E070477047002070470020704700207047D1
S315000046F00020704700207047002070470020704758
S3150000470000207047002070477047B5207047002092
S315000047107047002070470020704770477047704709
S3150000472070470020704770474FF6FF71884207D0E8
S31500004730010A01D0002070473E490978084000D0A0
S3150000474001207047020A07D13A4A1378002914BF9C
S31500004750184323EA000010707047830800EB537378
S31500004760C108DB080122A0EBC30002FA00F000EB4F
S31500004770012080B27047F8B504460D4616461F461E
S31500004780FFF7D2FF58B13A46314620200DF0CCFF54
S315000047901DB125A120200DF0BFFF27480480F1BDE3
S315000047A080B5FFF7C1FF20B1BDE8024020200EF022
S315000047B00CB801BD0CB480B50A4602AB012104E079
S315000047C00CB480B50A4602AB0021FFF7D4FF01BC4A
S315000047D05DF80CFB2DE9F04182B00024174DDFF89F
S315000047E0608012A712A6E0B2FFF7B7FFFFF79CFFA3
S315000047F0002814BF304638460090224658F8243028
S31500004800294620200DF07AFF20200DF0DEFF641CE3
S31500004810042CE8DBBDE8F3810122FF2101E001223F
S3150000482000210448FDF71DB90D0A00006E6F000057
S3150000483059455300E0E3032050FE032044100300D3
S315000048407CE1032080B5FFF788FFBDE80440012125
S3150000485078E780B5FFF781FFBDE80440002171E7E6
S31500004860F0B53F4B3E4CB0FBF3F304FB13004FF4A3
S315000048706164B0FBF4F40C714FF461650C796C4320
S31500004880051B3C26B5FBF6F54D7101224D7916FB4D
S315000048900544001B887100244FF4FA6008808A7072
S315000048A0CA702E4801E00022641C9C4236D28D78E4
S315000048B0170003D0022D08BF1D2602D0461916F890
S315000048C0016CCF78BE4203BF6D1C8D7001257D1C27
S315000048D0CD708D780D2DE7D10A88521C0A800125EE
S315000048E08D7092B2550802EB9575AD08B2EB850551
S315000048F0D9D1642592FBF5F5642606FB15255DB92D
S315000049004FF4C87592FBF5F54FF4C87606FB1522F1
S31500004910521E9241D20FC7E70122C5E7F0BD10B57E
S3150000492088B0044605A9FFF79BFF9DF81A009DF87D
S3150000493017309DF816200B49039004949DF8190032
S3150000494002909DF818000190BDF8140000900648EA
S315000049500088FFF72FFF08B010BD0000C412030047
S3150000496080510100A012030050FE0320FFF7D6BEBF
S31500004970FFF787BE2DE9F04104460D4616469846D8
S31500004980FFF7D2FEA0B1002710E0EA5D41462046BF
S31500004990FFF716FFF81007EB10700011A7EB0010D9
S315000049A0062804BF2046FFF7FBFE7F1CB742ECDB60
S315000049B0BDE8F081002B14BF3CA33DA3DAE738B570
S315000049C004460D462846FCF739FB0246691CFFE7FC
S315000049D0204601B0BDE8304036A3CBE700B587B02E
S315000049E0017806913E224178059181780491C1783B
S315000049F00391017902914179019181790091C379FD
S31500004A00324833490088FFF7DBFE07B000BD014698
S31500004A1000220220FFE72DE9F84F8A46934600253B
S31500004A20814626A626A70FF29008284C08E04246A3
S31500004A3020883146FFF7C4FE2088FFF7B1FE6D1CC3
S31500004A404D450EDA2088012308220AEBC501FFF73F
S31500004A50B1FFBBF1000F02D1681C4845E7D13A46C9
S31500004A60E6E7BDE8F18F2DE9F041184D04462888A8
S31500004A70FFF75AFEC0B10120002612A70FF2480820
S31500004A80E1070DD518B928884146FFF799FE288811
S31500004A9032463946FFF794FE2888FFF781FE00204C
S31500004AA06408761C1B2EEBDBBDE8F0812578200020
S31500004AB02578000025630000000000002025700016
S31500004AC00D0A0000256400002C20000050FE032083
S31500004AD0F40F03001CB5044620684079FBF74AFD35
S31500004AE088B92068418803290DD0E27C01920091A3
S31500004AF043790A4A0A490120FFF75CFE0121204654
S31500004B00FCF774F807E020460DF080FE01001CBF9C
S31500004B102046FCF76BF8012016BD00BF801003008D
S31500004B20541003000098002100E0491CCAB28242DA
S31500004B30FBD370472DE9F04F044687B02068617DAE
S31500004B40B0F80280E67CD4F80890A789257D002974
S31500004B500CBF402180218DF80C104079FBF70AFD2F
S31500004B60C0B9002E18BF022E14D0032E1CBF052E6E
S31500004B70B8F1030F0ED0DFF854140120FFF71AFE28
S31500004B803346DFF84C24DFF84C140220FFF712FE00
S31500004B900121D6E1E17B080003D0208A002800F03D
S31500004BA02281DFF8342400201080607D00280CBFAD
S31500004BB00820002009B140F00400FCF7C8F9E07BAA
S31500004BC010B1208AFCF7D2F9A07CDFF810B4FCF70C
S31500004BD0BEF9681C791B162E80B2ADF8001009EBE1
S31500004BE0050A00F2FC80DFE816F0170006017A00DD
S31500004BF02D0035017A00F5003A0100013F0144011C
S31500004C004901C6005D01FA00FA00FA006F0197013A
S31500004C106F01A101C6005D010120FCF798F9A81CEF
S31500004C208742C0F2A58000F0BCF9064600F0BEF946
S31500004C3000F055FB18B900F0B9F90EF028F9AD1CD3
S31500004C40ADB2ECE70420FCF782F94FF0000A19E058
S31500004C5000F0A1F95A460498C01C01904146208AEA
S31500004C600090206840790EF034F8010006D0FCF779
S31500004C706EF95846FCF77AF90AF1010A05984019C7
S31500004C80C51CADB2E81C87421DDB00F08AF900F0B6
S31500004C906DF928B10498C01CFCF7D0F9401C03E05C
S31500004CA09DF80D000EF01AFAC0B205909DF80D00A1
S31500004CB0FCF739FA0028CBD00599781B401AC01E9C
S31500004CC0C6D58020D3E75FFA8AF0002850D1E07B72
S31500004CD0257DC149002814BF042002200880002039
S31500004CE08DF80E0082460420FCF731F90EE09DF89F
S31500004CF00E10491C8DF80E10FCF729F95846FCF7E2
S31500004D0035F99DF80F002818C51CADB2E81CB8424D
S31500004D1022DA00F046F900F029F928B10498C01CFF
S31500004D20FCF78CF9401C03E09DF80D000EF0D6F957
S31500004D308DF80F005A4600F02EF941460498C01C23
S31500004D400190208A0090206840790DF079FF0100DB
S31500004D50CDD10AF1010AD4E7052E0BD09DF80E003D
S31500004D6030B95FFA8AF109B98021EAE0FCF7EFF879
S31500004D70FBF7F5FEE8E00C2E0CBF0D201620FCF725
S31500004D80E6F800F00EF99AF80270162E814603D165
S31500004D901A2F06DB192704E0152E02D1142FA8BFFF
S31500004DA013278D4800880BEB00050020FCF7CFF891
S31500004DB0152E0CBF01200020029001974A46208A3A
S31500004DC09DF80C3000904146206840790DF09CFF1C
S31500004DD02870CDE72046FFF742FC0028CAD1E07BC9
S31500004DE0002800F0B5808421ABE02046FFF788FC60
S31500004DF00028BFD1F3E7B8F10A0F24D1784E3078F6
S31500004E0008B3E07B002804BF781B08281BD100F0FC
S31500004E10C8F8002801BF9AF8020000289AF8030093
S31500004E20E22810D1291D3A4689B24846FCF7DFF838
S31500004E30FFF79CFDFFF79CFD02466A490220FFF73B
S31500004E40B9FC002030705146BDF80020404600F005
S31500004E5053FA74E000F085F8FFF763FC6FE000F0AA
S31500004E6080F8FFF7FEFB6AE000F07BF8FFF74AFCEC
S31500004E7065E000F076F800F041FA60E019F80050BD
S31500004E809AF800709DF80C0000902B462068407937
S31500004E903A464146FCF763F92A4639464046FFF74B
S31500004EA0E2FB51E09AF8001001B101210546162EE9
S31500004EB00CBF0120002000907B1B9BB209EB050272
S31500004EC04046FFF7D2FB3AE09AF800909AF8017054
S31500004ED0112E04D11220FCF73AF8002003E014202A
S31500004EE0FCF735F801203C490D8801910397C5F17F
S31500004EF0510189B20091CDF808900BEB05014B1CCE
S31500004F0042462146FCF7FCFC0BF8050032493248C4
S31500004F100088401C08802BE700F031F80020FFF7DE
S31500004F2001FE00F017F8FFF7A4FB08E000F027F8F1
S31500004F300120FFF7F7FD00F00DF8FFF798FB18B911
S31500004F4000212046FBF752FE012007B0BDE8F08F96
S31500004F508221F6E7BFB200974B46218A3246404689
S31500004F607047BDF80020514640467047834609EB1E
S31500004F700500049080788DF80D00FCF7D4B89AF8F7
S31500004F80006006B1012681443F1AB8B200904B4634
S31500004F903246414670479DF80D009DF80C30029050
S31500004FA070473A4629464846FCF723B80A4800881F
S31500004FB09DF80C30C0F1520080B201903246208A32
S31500004FC00090414620684079704700008810030031
S31500004FD0B0100300941003004CFE032028F60320B3
S31500004FE0A2FE0320B810030010B57448744C006884
S31500004FF02060606048220021FCF733FD714821687B
S31500005000007808704FF6FF71206800224180027315
S315000050100020226850730B202268907314202268A7
S31500005020D0734FF6FE722068028241820BF058F967
S31500005030216808760BF054F9216848760BF050F990
S3150000504021688876604821680078C8765F492068BC
S31500005050096840F8281F5E49097801715D48216892
S315000050600068086310BD10B50BF0C4FA544C6168B3
S31500005070897B884203D008460BF06BFA50B90BF0D7
S31500005080BDFA0146606890F90F00814204D00BF02A
S31500005090C4FA08B1012010BD6068008A0BF006FF53
S315000050A06068408A0BF022FF6068007B012818BF09
S315000050B000200BF0E6FE002010BD10B5464C002087
S315000050C0207003F0C6FA20B92046BDE8104001F072
S315000050D0D9BF67E080B5002000F015F828B10020A0
S315000050E000F005F808B1002002BDFF2002BD3448DB
S315000050F00068407B02281CBF1128432801D10120EB
S315000051007047002070472E480068007B01281CBFAE
S315000051100228032801D10120704700207047002093
S315000051207047002070472D4908707047704700206F
S315000051307047012070477047002070470020704775
S31500005140704770470020704780B50020FFF7CFFFFB
S3150000515018B1BDE802400020D5E702BD80B50020A9
S31500005160FFF7C5FF30B116480068007B032801DA57
S31500005170002002BDFF2002BD10B5040005D040F29C
S3150000518049110FF20C1002F099F81448007808B98A
S31500005190702010BD09480068482111FB04F108443D
S315000051A007494860BDE810405DE705484068008A49
S315000051B0704703484068408A70470000FCE00320BF
S315000051C0F8F90320D7E30320D8E3032000E1032006
S315000051D0CFE3032004E10320F0F90320ECE30320EE
S315000051E07047002070470020704702F0F1BF7047FB
S315000051F001F0C6BE01F076BD82B08DF80010DDE983
S31500005200002311461A4602B0FCF796BE32B586B0A8
S3150000521004468DF80420FFF719F905462046FFF7E6
S3150000522023F980F001010D420DD0BDF81800FFF7FB
S31500005230F0F98DF80000FF2804BF00208DF800006B
S31500005240CDF808D01AE0294308BF06A815D00542B4
S3150000525014D0BDF81800FFF7DCF98DF80000FF2820
S3150000526004BF00208DF800009DF800008DF80C00AA
S31500005270BDF81800ADF80E0003A80290DDE90101A3
S315000052800A4601462046FCF757FE07B030BD00002F
S31500005290656D6265722D6D756C74692D6E657477BA
S315000052A06F726B2D737475622E63000080B5FFF705
S315000052B0F2F9FBF79DF9BDE801400DF01FBF80B57F
S315000052C0FFF7ECF9FBF7BCF90DF0FEFFBDE8014076
S315000052D00EF048B87047FFF709BAFFF70DBA00207D
S315000052E0704738B504460D46FFF71DFA2946204695
S315000052F0BDE834400EF0A7B8FFF700BAFFF70BBAC7
S31500005300DFF8BC14012008707047DFF8B4140A787F
S3150000531082421CBF0870FCF750BF70470170090A33
S315000053204170801C704710B504460822FCF756FBF6
S3150000533004F1080010BD2DE9F041044684B0207D3B
S315000053400A9F0D46800721781E464CBF4CF6014841
S315000053504CF6010808003B880CBF1E20202003EBFA
S31500005360000C624508DA00920246DFF85814042061
S31500005370FFF726FA742045E009B948F0200801A88D
S3150000538001F060FD41462846FFF7C8FFA189401C91
S31500005390FFF7C4FF217D890703D5611CFFF7C3FF13
S315000053A002E06189FFF7BAFF804601F09DFB0146E6
S315000053B04046FFF7B3FF01A9FFF7B5FF0B21FFF743
S315000053C0ADFF217841F0030100F8011B21780C297B
S315000053D004BF618AFFF7A2FF218AFFF79FFFE189D9
S315000053E0FFF79CFF3A8880463146FCF7F7FA207DA6
S315000053F0C00748BFB72005D438880B994044401BE6
S315000054000880002004B0BDE8F081F8B504460E46D9
S315000054101546162200212846FCF723FB60782178E2
S3150000542001EB00204FF6DF7108404CF6014188423F
S3150000543019D104F10D00871C41780278A88A02EB85
S31500005440012140F00200A981A88208223946681C81
S31500005450FCF7C4FA307807F10801401A2618F6B2AC
S31500005460072E06DA3DE04CF60101884239D1E01DEF
S31500005470E1E748780A7802EB00200B2831D18B78D7
S31500005480C91C23F02C00B61E0328F6B2CE4A18BF5C
S31500005490CE4923D113F00C0018BF0828287002D07B
S315000054A00C2803D018E0052E05DA1AE0072E18DBC3
S315000054B000F01DF8688200F01AF828820E78487805
S315000054C006EB0020E88198060DD5A88AC04940F071
S315000054D00100A882B52301E00346BE490420FFF778
S315000054E069F90020F2BD881C001BC0B2F2BD4878E5
S315000054F011F8026B06EB0020704771B58BB00D46B4
S3150000550005AA0BA92846FFF780FF06006BD005A861
S3150000551000F0C2F89DF82C00841B35442A46E1B2FF
S3150000552005A8FCF792FE08B1012050E02A46E1B238
S3150000553005A800F05AF8002855D09DF828008007E5
S315000055400DD54FF6FF70ADF81E000822A2490DF1E9
S315000055501500FCF78DFA401E8041C00F07E001F0F0
S31500005560C1FABDF81E1088420CBF01200020BDF80C
S315000055702210ADF80810BDF82410ADF80A1001216C
S315000055808DF80C10954909788DF80D109DF82810A6
S31500005590C9074CBF20210021ADF80E10BDF826101A
S315000055A0ADF8101000218DF812109DF8141021B1DD
S315000055B008290ED00C2911D015E005A80190E3B2F8
S315000055C0BDF81E0000902A4602A8FBF77EF90CB033
S315000055D070BD00280CBF04210521EEE700280CBF92
S315000055E002210321E9E70020F1E7F0B50024134684
S315000055F0032983B0744A07DA032000900B467849E2
S315000056000420FFF7D7F845E0057DED0742D41D7865
S31500005610AE0703D5734900F08EF83BE015F004069B
S3150000562018BF0824EF0758BF44F004042D074CBFE9
S31500005630022501252C433EB1052903DA6A4900F00B
S315000056407AF827E0197900E09978C389002501E006
