S01400005A6967626565456E644E6F64652E733337ED
S3150000000070D70320E9C90200597F0100F9AD02004B
S31500000010A70A02020002000004180FAC3062CC00EE
S3150000002000000000000000000000000000000000CA
S3150000003000000000AC0A0300000000000000000001
S315000000400000000000000000FFFFFFFFFFFFFFFFB2
S31500000050FFFFFFFFFFFFFFFFFFFFFFFFFFFFFFFFAA
S3150000006000E00F000100000000000000FFFFFFFF9E
S31500000070FFFFFFFF1C000000000000000000000062
S315000000800000000000000000D2FC0320D2FC032088
S3150000009070D70320286C0300EACC020010CE0320A0
S311000000A0C010002000001000000000004E
S3150000020070D70320E9C90200597F0100F9AD020049
S3150000021001AE0200FDAD020005AE020011AE020005
S3150000022011AE020011AE020011AE020011AE0200C4
S3150000023009AE020011AE020011AE02001D8B0100D4
S315000002404B0D020041710200E571000011AE020083
S31500000250596D020091710200477102004971020056
S3150000026043710200D9970200239A02001920020066
S315000002702BE3010011AE020011AE02003BAF0200FB
S3150000028011AE020011AE0200419A020011AE020048
S3150000029011AE020011AE020011AE020011AE020054
S315000002A011AE020011AE020011AE020011AE020044
S315000002B093710200457102002D0B0200C771020006
S315000002C011AE0200A1CB020011AE020011AE020077
S315000002D011AE020011AE020011AE020011AE020014
S315000002E011AE020011AE020011AE020011AE020004
S315000002F011AE020011AE020011AE020011AE0200F4
S3150000030011AE020011AE020011AE02006F49704A32
S3150000031001E021B1491E1369DB07FAD401B9B0E047
S31500000320506001201060106910F0060F05D04107DB
S3150000033000D5A9E0800700D5A9E000207047F0B5F8
S3150000034013460022002936D0604C614D8BB98B4292
S3150000035031D250F8046BEE605B1C08262E602646F0
S3150000036001E036B3761E2F69FF07FAD4002EEED1D0
S315000003701FE0EFF3108672B600230EE02F6907F038
S315000003801907102F08BF2F602F693F07F6D550F8C1
S31500000390047BEF605B1C10272F608B42F4D306B9F9
S315000003A062B6264601E026B1761E2869C007FAD451
S315000003B00EB96FF002021046F0BD2DE9F0479A46DD
S315000003C0444B454F1C681B683B688046002043F041
S315000003D001033B60950881460C4602E0B14404EBFC
S315000003E08604A94517D208EB89063046FFF78EFF2B
S315000003F0010014D1C6F30A00C0F500608608A5EB1B
S315000004000900B04238BF0646524631462046FFF73D
S3150000041096FF0100E2D03968490849003960BDE815
S31500000420F0872C49294A0B6809682B490B6843F069
S3150000043001030B608860012048604869400704D5C5
S3150000044008684008400008601EE04869800704D537
S31500000450086840084000086019E00220486001E092
S3150000046022B1521E4869C007FAD422B9086840086A
S315000004704000086005E00868400840000860002069
S3150000048070476FF0020070474FF0FF3070476FF013
S3150000049001007047002390E70F48016841F0010111
S315000004A0016046F21A31C1644FF4807141604169BE
S315000004B0C907FCD44FF4007141604169C907FCD4F7
S315000004C00021C1640020704700000000809698005B
S315000004D00C000E4004300E4008000E4080B500208F
S315000004E000F044FB012002BD1E482DE9F0410068E2
S315000004F08189007D081A14469846C61E00270025E5
S3150000050006E0B2B2B9B2404600F092FDFF1C6D1C87
S31500000510E8B2A042F5D3002000F028FB0120BDE898
S31500000520F0812DE9F8430F4E30688189007D081A65
S3150000053090469946C71E0025002409E000F014F8ED
S31500000540ED1C00F011F8AD1C00F00EF8ED1C641C5B
S31500000550E0B24045F2D33068002100F047FB0120AD
S31500000560BDE8F283ACF40320BAB2A9B2484600F063
S315000005705FBD704780B501F0D5F8FF2805D0022889
S3150000058003D2DFF83418085C02BD002002BD10B5A6
S315000005900168DFF828280B8813804B885380497937
S315000005A011710168097951714FF48A51D18001683E
S315000005B08979890644BF4FF48B51D180DFF8001842
S315000005C083690A783BB9C088DFF8F837188002F0EB
S315000005D0FD00087010BD42F002020A701622816901
S315000005E0DFF8E447204601F019FA0020207010BD1C
S315000005F080B5002001F081FAFF2001F0ECF801F04F
S315000006008AFA00F0A4FD02460121DFF8AC0701F0EA
S3150000061048FADFF8A837DFF8B427DFF8B407522125
S3150000062001F056FB01F012FC01F0B8FC01F06AFD86
S3150000063001F0BFFE01F004FFBDE8014000F059BE25
S31500000640704780B502F02FFD20B904F075F808B99F
S3150000065004F019F904F074F9BDE8014004F07DB91D
S3150000066010B500224FF6FF71DFF8683700E0521C24
S3150000067092B233F832408C4203D08442F7D110460E
S3150000068010BD084610BD38B50446FFF7E9FFDFF890
S31500000690485701464FF6FF722888914203D12246F9
S315000006A0DFF8381706E0DFF82C2702EBC1014A68AD
S315000006B0DFF82C1704F0A2F92888BDE8324004F0D0
S315000006C08DB910B50446DFF81C070078002882B003
S315000006D03BD004F06BFA0246DFF80C17042004F056
S315000006E08DF92068418800914379A289DFF8FC16CC
S315000006F0042004F083F9042004F034F918B12068CA
S315000007004088FFF7C0FFE07B28B1228ADFF8E016B9
S31500000710042004F073F9E07CDFF8D8160090A06896
S315000007200278A37C042004F069F9207DA1890A1AC5
S31500000730A1680144012392B2042004F059FABDE8ED
S315000007401C40C5A1042004F053B913BDF8B50446F6
S31500000750DFF8A4562068407900F0E4FF2268FF28FD
S315000007600BD100F064F8DFF89416022004F046F985
S315000007702068DFF88C16427943E0DFF88816237F7D
S31500000780DFF8846601EB0010017B994209D000F086
S315000007904EF82068DFF8743600F044F8227FAFA1E7
S315000007A02FE040881188DFF86876884210D04FF62F
S315000007B0FF73994202D1B0F5004F09DB00F037F81C
S315000007C02068DFF8503600F02DF82068028817E020
S315000007D02079022818BF032818D11189507904F00E
S315000007E064F898B920684288E37C2946022004F020
S315000007F005F92068DFF8203600F014F82068028931
S315000008003946022004F0F4F80020F2BDA07B00284F
S31500000810204603D0BDE8F24004F082BABDE8F240BB
S3150000082004F0B6BA42793146022004F0E7B8E37C18
S3150000083052882946022004F0E1B830B5144683B048
S315000008401A4623785B074CBF052303239A420AD234
S3150000085000931346DFF8C425DFF8C415042004F01E
S31500000860C7F800203EBD089D286029710698E880DB
S31500000870AC60AA81207800F00100A8732078800877
S3150000088000F00100E8732078C00800F001006875E8
S3150000089001202875E87B30B10121204600F0C8FB15
S315000008A0297D891C29752882287D411C2975205C93
S315000008B0A874481C2875C9B2605CE8740798A861DA
S315000008C004F05BFD287701203EBD2DE9FE430F466F
S315000008D0DFF85015DFF85065DFF8508591EC080B0E
S315000008E086EC080B0B9C0296019400250A99009150
S315000008F03946FFF7A2FF002875D0C8F80060B07C23
S31500000900DFF82C1508703046FFF7DBFE3046FFF7A0
S315000009103EFE304604F00DFE98BBA4BB042F18BF64
S31500000920052F03D0022F18BF032F01D1012200E0AB
S315000009300022F188306801914188009101210388E5
S31500000940F07C00F055F908B33068817989061DD42A
S315000009504288DFF8E014DFF8E054022004F048F89B
S31500000960012028700121304600F040F938B10346D5
S31500000970DFF8C824DFF8C814022004F039F8002094
S31500000980287001252FE0207D80072CD5306840791E
S31500000990FF2824D10027DFF8244400F0D8FBF9B261
S315000009A0814220D2F8B200F0C1FE8146F8B200F0D2
S315000009B0D2FB90B130684188484600F00CFE60B129
S315000009C03046FFF7E4FD306880F8059084F804901F
S315000009D03046FFF7BBFE00B101257F1CDDE7304640
S315000009E0FFF7B4FE054600F09BFA16220021DFF859
S315000009F0D80301F056F80020C8F800002846BDE8E4
S31500000A00FE83DFF840040178491C017001F07F0085
S31500000A107047DFF8AC130A78002814BF42F00100D3
S31500000A2002F0FE0008707047DFF81C14087070476B
S31500000A3078B1DFF814140978012903D1018841F04F
S31500000A40400105E0022904D101884FF6BF7211402A
S31500000A5001807047000000005D0000002564000072
S31500000A6078B1DFF8E8130A78012A04D1DFF8E02329
S31500000A7012780A7001E0022A03D1017841F01001D0
S31500000A80017070472DE9FE43CD4E80463078C00791
S31500000A9006D5DFF8C013022003F0AAFF00205CE0B1
S31500000AA0CB4CC64DDFF824932046FFF7D9FFA81D8F
S31500000AB0FFF7BEFFDFF878032178007849074CBFBF
S31500000AC0E07060703078B9F8001080070AD52246C9
S31500000AD0BD4804F061FF8046307800F0FD004927EC
S31500000AE0307019E0B74800884FF6FC7290420ADA77
S31500000AF00B460146CDF8048000942A46002005F0F6
S31500000B0004F9552707E00A46CDF800802346294612
S31500000B1005F0E5F842278046A87980064CBFCE4D01
S31500000B2042A504F043F802460295CDF804800097EA
S31500000B300220CA4BCA4903F05BFFCA49022003F0F0
S31500000B405DFFB9F8002001232146022004F050F889
S31500000B5098A1022003F04CFF4046BDE8FE8300202A
S31500000B6090E70A460146B148006801E00021F8E72F
S31500000B7070B504460E462079010018BF01281546B7
S31500000B800BD1A0680078C00601D5300005D0A07B47
S31500000B90002804BFE07C0B2801D1002070BD8B49E2
S31500000BA000200880607DE17B00280CBF0820002023
S31500000BB011B900F0CCF906E040F0040000F0C7F9E6
S31500000BC0208A00F0D3F9A07C00F0C1F90B2000F0D8
S31500000BD0BEF9E07C00F0BBF9304600F0B8F92046DB
S31500000BE0FFF7D5FC2846BDE870404BE70022BFE77B
S31500000BF070B5044618469C4B8F4D1B78012B01D0CF
S31500000C002E7816B10020287070BD82F001020A43CA
S31500000C1001D1002070BD2BB10A460499234603F08A
S31500000C2036FE00B1012070BD00000000000000008B
S31500000C3038B5D2885224950648BF4924550544BF85
S31500000C40083CE4B2150544BF083CE4B2120444BFB4
S31500000C50A41EE4B203284FF6FD7310D8DFE800F0B7
S31500000C600204080D0B460AE0C8B205F0DEFB02E0FE
S31500000C70C8B205F00CFE034601E0641EE4B2184655
S31500000C8003F023FE201AC0B232BDB0B504460D00F3
S31500000C900EBF00202878FF28174601D12070B0BD6E
S31500000CA0284600F0EAF9874288BF07463A46691C9B
S31500000CB0601C00F0B3FE2770B0BDB0B50D00044651
S31500000CC0174603D1002060702070B0BD2878FF2839
S31500000CD002BF6878FF2820700CD0284600F0D2F9B1
S31500000CE0874288BF07463A46A91CA01C00F096FE1C
S31500000CF02770380A6070B0BDF0B5541E002B37D08F
S31500000D00052A48DA0025002600230CE0571EFF1AA4
S31500000D10FF000CFA07FC4CEA050511F80EC00CFAA8
S31500000D2007F73E435B1CDFB2974209D2DBB2A4EB66
S31500000D30030E00280CBF4FF0000C10F80EC0E5E7BC
S31500000D40042A0FDAD0000121D200401E9140494208
S31500000D5045FA00F2D20748BF0D4346FA00F2D00723
S31500000D6048BF0E43AE420FDBB54214DA10E05B1CFF
S31500000D70DDB295420FD2DBB2E51A00280CBF002681
S31500000D80465D4D5DB54201DA0120F0BDAE42EEDAB8
S31500000D904FF0FF30F0BD0020F0BD0021334A01E0E6
S31500000DA0891CC9B2535C8342FAD350184078704705
S31500000DB0000000005D0000004EFC032014F4032038
S31500000DC0B1FC032046FC0320B0F4032048FC0320BA
S31500000DD020F40320205C03004CFC0320385A030057
S31500000DE0505A0300C2DF0320585A0300605A03001A
S31500000DF0805A03008C5A0300AC5A0300CC5A0300F5
S31500000E00E85A03003CF20320F05A0300185B030083
S31500000E10285B0300205B0300305B0300545B030088
S31500000E20385B0300685C03008CF40320ACF40320F9
S31500000E30E0DF03205C5B0300ADFC0320AC5B03003A
S31500000E40845B0300E1DF0320AEFC0320AFFC03203C
S31500000E50B0FC0320B45B0300005C0300F85B0300F6
S31500000E60DC5B0300105C0300DFDF0320885C03000B
S31500000E70283808288041C00F704710B500F009F8DF
S31500000E80FF2801D1A32010BD002104F83010002056
S31500000E9010BD0446084600F045BC38B500F00BF816
S31500000EA0FF2801D1A32032BD294604EBC000BDE8CE
S31500000EB0344000F0FCBF04460846154600F032BC3C
S31500000EC040B11C280CD01D280DD01E2818BF1F2885
S31500000ED006D00AE0A1F10B00102806D200207047C8
S31500000EE01B29FBDB01E00929F8DB8A20704710F09B
S31500000EF0E00011D0802806D0A02806D0C02806D051
S31500000F00E02806D007E01C2070471D2070471E20F1
S31500000F1070471F207047FF20704700F01F00704782
S31500000F2080B55E490020087005F00CFF5C4908801A
S31500000F30522200215B4800F0B4FD5B490020088086
S31500000F400C22BDE808400021584800F0AABD10B5A3
S31500000F5055490A88522A07DA524CA054501C088078
S31500000F6080B22044401E10BD002010BD38B500F0F0
S31500000F7023F80546200AFFF7EAFF002D18BF0028D0
S31500000F8001D0284632BD002032BDF8B500F014F875
S31500000F9000F019F800F013F80746200EFFF7D7FF08
S31500000FA0002D18BF002E05D0002F18BF002801D035
S31500000FB02846F2BD0020F2BD0446C0B2C7E7064689
S31500000FC02002000EC3E705462004000EBFE7B0B5B9
S31500000FD0354D2B880C46E11852290CDA314F014663
S31500000FE02246F81800F01AFD28882018288080B2BA
S31500000FF0001B3844B0BD0020B0BD70B500245E189B
S31500001000B2421D460DDA1A46294900F033F800208F
S3150000101070BD51FA85F303446D1E13F8013C03EBD2
S315000010200424EAB2002AF4D1204670BD0423E4E782
S3150000103080B50223FFF7E1FF80B202BD2DE9F04142
S31500001040144691420F461B4DDFF86C8028BF1B4AA1
S3150000105008D2C619304600F010F83818401C8442F1
S3150000106004DA174A00F005F8284600E03046BDE8E5
S31500001070F0814146022003F0BBBC0078FF2808BF80
S315000010800020704780B502220021FFF7D1FF4FF6FE
S31500001090FF71884208BF002002BD0000B1FC03209A
S315000010A046FC032020F4032048FC032014F403200C
S315000010B09C4F03004AFC0320B44F0300C44F0300B7
S315000010C0D84F0300DFF81409DFF8141900880A68FE
S315000010D0DFF8101984B0ADF8060003A8026002A874
S315000010E00A68DFF8041902600020ADF80400DFF892
S315000010F0FC080088ADF802000020ADF800000220D0
S3150000110008700020DFF8E8180DF10603DFF8E42880
S315000011101B5C02EB0012137003AB33F810305380E4
S3150000112002AB33F81030938001AB1B5C93710DF169
S3150000113002031B5C01EBC30393601DF800301373BD
S31500001140401C012302285373DEDB04B07047DFF82E
S31500001150980800787047DFF89C1801EB0010407B78
S3150000116000F001007047412818BF422803D04328E9
S3150000117018BF442801D1012070470020704741283C
S3150000118018BF422801D1012070470020704743282C
S3150000119018BF442801D10120704700207047F8B5D8
S315000011A01546069A04461E4600F022FA60B104214E
S315000011B000F0B2FB070007D0204600F0A3FC324641
S315000011C029462046B84790E0F1BD2DE9F04383B0AB
S315000011D00446160098461EBF0A9F002F5FEA0800C5
S315000011E00D461DD038787188000730794CBF4022F3
S315000011F0802200F0FDF998B1082100F08DFB8146B0
S3150000120070B1307900F07EFC0B9801900097434650
S31500001210324629462046C847BDE8F74300F07BBC66
S31500001220BDE8F783F8B5164605461A4600F0E0F91C
S31500001230D8B1069C21000BD1022100F06DFB040001
S3150000124013D0284600F05EFC31462846A0470BE046
S31500001250102100F061FB070007D0284600F052FC81
S31500001260224631462846B8473FE0F1BDF8B5154657
S3150000127004461A4600F0BCF908B98620F2BD069964
S31500001280002689B9202100F047FB07000CD0204634
S3150000129000F038FC0998089B079A009029462046DA
S315000012A0B847064600F037FC3046F2BDF8B50446AE
S315000012B0A568207800F026FC002612E02868F6B221
S315000012C0142111FB06F147182078398803F0DEFA5D
S315000012D00121384600F020FB01001CBF207888471A
S315000012E0761C2979F0B28842E8D3BDE8F14000F0D7
S315000012F012BC70B50024DFF8FC56DFF8EC6608E097
S31500001300FFF729FF20B1E4B205EB0410FFF7CEFF8B
S31500001310641C3178E0B28842F2D370BD10B5002368
S3150000132001E0001D5B1C9CB28C4204D204889442EE
S31500001330F7D1408810BD002010BD0288B2F57C4F61
S31500001340A8BF00F00BB8DFF8B006081A0C2190FB16
S31500001350F1F082B20021DFF8A406DFE7DFF8A0167D
S31500001360401A142190FBF1F082B20021DFF89406B6
S31500001370D4E710B50C460188638899420DD1027BEB
S3150000138023791A4209D0B1F57C4F04DBFFF7E6FF5B
S315000013902189884201D1012010BD002010BD10B561
S315000013A014460A88E3889A420AD10288B2F57C4F2D
S315000013B004DAFFF7C2FF2189884201D1012010BD5E
S315000013C0002010BD2DE9F74F04469B460025002658
S315000013D003E0C0884519ADB2761CDFF80C16097813
S315000013E0F0B2884280F0D080F6B23101DFF8040610
S315000013F0DFF800260844515C227880689142E8D1E3
S3150000140000903046FFF7A7FE0028E5D04FF0000A0F
S3150000141005E0B8F80A004519ADB20AF1010A0099CB
S3150000142009795FFA8AF08842D6D200985FFA8AFA7A
S315000014300068142111FB0AF100EB01082146404621
S31500001440FFF797FF0028E4D04FF0000908E038794D
S315000014503021084202D1F8782D18ADB209F1010900
S31500001460B8F808101FFA89F08842D6D2D8F80400D6
S315000014701FFA89F90C2101FB09F147182246394662
S315000014804046FFF78CFF0028E1D0019800B10760C5
S315000014903879800611D5DFF86005002106E002796B
S315000014A0920602D5C278891889B20C30B842F6D3B2
S315000014B0DFF8540500EB010A03E0DFF8500500EB06
S315000014C0050A0C9D280018D0029E00F060F802461E
S315000014D03B8861882078DFF8389503F0D1F9E8B1C8
S315000014E03879C0061CD500F052F8034602980090E1
S315000014F03A4661882078C84747E00298002844D0D9
S315000015005646824600F043F802463B8861882078BA
S31500001510DFF8009503F0B2F90028E1D17E2034E02F
S3150000152097F80280BBF1000F0CBFFC785C46404682
S31500001530FFF725FE30B1621ED2B231465046FFF7A4
S31500001540A4FB1FE04046FFF722FE30B1A21E92B276
S3150000155031465046FFF7B1FB14E03DB9BBF1000F31
S3150000156004D0F878834538BF89200ED3002E224652
S3150000157004D10021504600F094FA03E0314650466B
S3150000158000F04CFA002000E08620BDE8FE8F3946C8
S315000015904046D2E660B5002503E01E7B360616D42B
S315000015A06D1C0679EBB2B34213D20368EDB2142672
S315000015B016FB05F633441E888E42F1D1160006D07E
S315000015C0802AEAD0402AEBD11E7B7606E8D518465B
S315000015D060BD002060BD80B5002201E080B54022DC
S315000015E000F006F800B1012002BD80B58022F7E7C1
S315000015F038B50C46154600F095F8FF2801D10020B5
S3150000160032BD04E038B50C46154600F08DF8DFF81B
S31500001610E43303EB00102A4680682146BDE83840D3
S31500001620B8E74022FFE72DE9F04780468946924613
S31500001630FFF7DEFF002508B9FF2019E00026DFF8D6
S31500001640B473DFF8A44300E0761C2178F0B2884238
S315000016500DD2F6B23001385C404508D052464946B4
S31500001660FFF7D0FF0028EFD06D1CEDB2ECE728465F
S31500001670BDE8F08730B50022DFF8783300E0521C71
S31500001680DFF864532D78D4B2AC420CD2D2B2140136
S315000016901D5D8542F3D10D0003D01C44647BE40735
S315000016A0EDD5104630BDFF2030BD80B50021FFF7D7
S315000016B0E1FFFF2801D1002002BDBDE802404AE556
S315000016C070B50E4604460021FFF7D4FFFF2801D16E
S315000016D0002070BDDFF81C1301EB00153200687B9B
S315000016E000F0010114BF40F001000020B142687310
S315000016F016D086B12846FFF7D9FD11E00068F6B28C
S31500001700142111FB06F10844761C017BCA090188E5
S31500001710204600F033FCA8680279F1B29142EDD37D
S31500001720012070BD0121A5E70021A3E7DFF8C4125F
S315000017300001085C704738B50C46FFF7F3FF014619
S315000017400020FF291FBFDFF8AC2202EB01118968D8
S31500001750002916D0002203E01B0648BF2846521C6B
S315000017600D79D3B2AB420BD20B68D2B2142515FB5E
S3150000177002F52B44451C1B7B002CEDD05B06ECE7E9
S31500001780C0B232BDF8B50C461546FFF7CBFF014691
S315000017900022FF291DD0002301E0521C5B1C954846
S315000017A000EB0110DEB280680779BE4211D20068F4
S315000017B0DBB2142616FB03F630442F00067B02D05C
S315000017C0760602D4EAE73606E8D5D6B2A642E4D1D2
S315000017D0F2BD0020F2BD002109E010B5044601214A
S315000017E000F005F82046BDE8104003F0A1BE2DE943
S315000017F0F34F87B003F0C1FD069000247A48DFF866
S31500001800F481007805909DF81C00019000E0641CAE
S315000018100599E4B28C427BDA0199FF2907D09DF83D
S315000018201C00FFF77FFF0446FF2C06D170E008EB93
S3150000183004100699007B8842E9D14FF0000A4FEA6E
S31500001840041901E00AF1010A08EB09005FFA8AF1BE
S3150000185080680279914257D200685FFA8AFA1421A9
S3150000186011FB0AF145182889B0F5967FC8BF05F027
S31500001870D4FC002613E00120009000235A460021E4
S3150000188002A8FFF79FFD9DF8200038B1BDF80A2099
S3150000189018F809103B46584600F03DF8761C298991
S315000018A0B0B28842CED26868B6B20C2171434718EE
S315000018B03879C006F2D418F809008DF808003946C0
S315000018C02888ADF80A00387940064CBF80204020B1
S315000018D08DF80C003888ADF80E002846FFF72DFD70
S315000018E0ADF810003979F878490706D5D7F808B069
S315000018F00328C0DBDBF800B0BDE70328B4BF07F15F
S31500001900080BD7F808B0B6E70198FF283FF47FAF79
S3150000191009B0BDE8F08F704730B5047B0122002383
S315000019200C4205D1002030BD144218BF5B1C52008A
S31500001930D5B28D42F8D30069DBB250F8230030BD32
S315000019402DE9F04F0C4601210028607D4FF0000C78
S3150000195008D0050008BF4FF0020E09D0012805D1B6
S315000019608E4605E010B94FF0080E01E04FF0040E68
S3150000197009980A9DDDF82C90DDF830A0E046264F48
S3150000198007EB8806378897421FD1F77817EA0E0FBC
S315000019901BD0B7784F4518D396F803B0E77B5FEABC
S315000019A0CB6B01D50FB910E07FB9E24501D0844574
S315000019B001DB00210EE0B77803F80C700CF101068C
S315000019C02F887F1C2F801FFA86FC08F10108B8F1CA
S315000019D0380FD4DB0846BDE8F08F00003E650300F3
S315000019E0042D0300082D03009DFC03204065030021
S315000019F08C3003003CF20320082E0300A0300300C5
S31500001A004C2F03009C30030098F203205CF2032065
S31500001A10B3480000AF480000282D0300814233D2AE
S31500001A2010441144401E491E10E011F8013900F817
S31500001A300139121F11F8013900F8013911F801397D
S31500001A4000F8013911F8013900F8013992B2042A77
S31500001A50EBDA93B2002B1EBF11F8013900F80139F9
S31500001A60521EF6D1704711F8013B00F8013B121FD8
S31500001A7011F8013B00F8013B11F8013B00F8013B6E
S31500001A8011F8013B00F8013B92B2042AEBDA93B25B
S31500001A90002B1EBF11F8013B00F8013B521EF6D188
S31500001AA07047130003D00A46194605F0D7BB7047A6
S31500001AB010B500E0521E93B223B100F012F8F9D02F
S31500001AC0181B10BD002010BD10B500E0521E93B2C9
S31500001AD02BB100F006F8F9D0181B40B210BD00205B
S31500001AE010BD10F8013B11F8014BA34270470000EE
S31500001AF00C490D4808600020704700B170207047FF
S31500001B000020704780B500F013F8FF2801D1A3200C
S31500001B1002BD002002BD00207047704700BF034889
S31500001B200078704774F40320426503003CF20320FA
S31500001B3080B5FFF7F7FDFF2818BF002002BD002182
S31500001B4001707047007800B10120704700F0AFB90E
S31500001B5000F0BBB92DE9F74F03291C4603DB200033
S31500001B600AD0052904DA9349022002F041FFAAE0CF
S31500001B7042F004008DF8080002A8FEF771FF0099F4
S31500001B809DF8080008700125200005D000984470D3
S31500001B90200A009988700325FEF733FF00994855FF
S31500001BA0691C009A0C9889B24D1C50544FF0000ADB
S31500001BB0DDF8389007E0009B41465819FFF72EFFE5
S31500001BC065190AF1010A0D985FFA8AFA10F80A7087
S31500001BD038007AD00026742F4FF0000BB04637DA63
S31500001BE04C2F59F8048B1CBF532F622F14D159F870
S31500001BF0044B4C2F07D1A4B2A3464FF6FF70834582
S31500001C0034D0022632E0532F30D15FFA84FBBBF189
S31500001C10FF0F2BD0012629E06C2F04D14046FFF799
S31500001C2031FA841C22E0732F04D14046FFF725FACF
S31500001C30441C1BE0A7F130000A2838BFA7F1300486
S31500001C4014D3A7F14100072821D2A7F137040DE0EC
S31500001C500024752F08BF012606D0762F08BF02265E
S31500001C6002D0782F0FD1032659F804BBA4B222461E
S31500001C70BDF8040012FA85F17118884214DA3B4661
S31500001C80B2184D491CE0772F08BF0426ECD03A461F
S31500001C904A49022002F0ACFE15E0009901F805B0B1
S31500001CA06D1C4FEA1B2B761EF1B20029ADB2F4D1A2
S31500001CB0002C86D0B8F1000F7FF47DAF3B4640493B
S31500001CC0022002F095FE002000E0A8B2BDE8FE8FDB
S31500001CD010B53C4C20603C4801803C4802603C48C2
S31500001CE0036010BD3EB500920C4606A9024602915D
S31500001CF0019300233448018832480068FFF72AFF21
S31500001D0005463248006805804FF48A51304800681D
S31500001D104480C180801DFEF78BFE28463EBD0346EB
S31500001D20284802682948006801882948006804F0A4
S31500001D3018B80020F3E700910293019221490B683D
S31500001D40224909680A8822490968704700B583B0A4
S31500001D5001921C4A126800921C4A126813881C4A97
S31500001D60126803F0D2FF0EBD0022EFE780B50091A6
S31500001D70FFF7E4FF03F0B3FF02BD0021F6E71FB54E
S31500001D80104C24680394114C246824880294069C01
S31500001D9001940F4C24686488009404F016F804B08B
S31500001DA010BD0B4800687047094A1368187110681F
S31500001DB0417170478C490300D0490300B4490300C0
S31500001DC0044A030058F3032044FC03205CF3032079
S31500001DD060F3032038B504460D461046FFF78DFE26
S31500001DE000202070A847BDE83140FFF794BE0022CE
S31500001DF051495248EEE7002251495248EAE770B588
S31500001E00044616460D463046FFF77CFE002020703D
S31500001E103046A847BDE87040FFF77DBE01224A491B
S31500001E204A48ECE701224A494A48E8E7022246497D
S31500001E304948E4E7022246494848E0E70122484982
S31500001E404848DCE7022246494748D8E780B50120E2
S31500001E5005F049FB454805F0DEFA4549087001BD25
S31500001E6080B505F051FB012805D041480078BDE852
S31500001E70024005F0B8BA01BD30B5002400E0641C8C
S31500001E803C4D2D88E3B2AB420FD2E4B20C253A4B5F
S31500001E9015FB04F52B441D78854201BF5D888D42F4
S31500001EA01D799542EBD1184630BD002030BD80B576
S31500001EB019B905F017FA002002BDB1F1004F02D2A0
S31500001EC005F01AFAF7E7022002BDB1F5000F3CBF94
S31500001ED00902FFF7ECBF0220704770B504461D46A5
S31500001EE0FFF7CAFF06000ED02046FFF7DEFB50B113
S31500001EF0B0682946FFF7DBFF28B90498707105988A
S31500001F00B071002070BD022070BD1CB50093134651
S31500001F10049C0194012205E01CB500931346049C21
S31500001F2001940022FFF7D9FF16BD80B50023009368
S31500001F30FFF7F2FF02BD000011510100CCF10320B2
S31500001F40D9480100D4F103201FF50100ACF10320AC
S31500001F50C52C0100B4F10320BCF10320C4F1032019
S31500001F6069F60100DCF10320E4F10320A827030051
S31500001F709BFC032090DF032018DC032080B5FFF7CD
S31500001F807BFF20B1806800210170002002BD022085
S31500001F9002BD0122F2E70022F0E7000080B500F062
S31500001FA095F8BDE8014096E0FEB5044602F068FBF0
S31500001FB00646204602F072FB00229DF800100642FB
S31500001FC003D186F00103184301D101980278204617
S31500001FD04FF6FF7506B321281EDA4223022A424E27
S31500001FE009DA5A43324432F81030AB4214D05B1C43
S31500001FF022F8103010E00FD1002206EB400703FB59
S3150000200002FC37F80CE0AE451CBF0EF1010E27F8B6
S315000020100CE0521C022AF2DB344F354B37F8102005
S3150000202033F810C09445B641F643F60FAC451CBFD5
S315000020300CF1010C23F810C00928B7F814C018BF1A
S315000020400B2807D19F8A01EB070EE64510DAC9195E
S3150000205099820FE01D280DD1B3F83AE07F8F8E44A8
S31500002060BE4505DA33F81070C91923F8101001E0DF
S31500002070A3F814C033F81000904203D316B92046D3
S3150000208002F031FC00261B48815DA14204D0761C7B
S31500002090F6B2112EF8DBF7BD112E16DA03F06FF942
S315000020A0044615480078844203DBCE21134805F028
S315000020B035FA2221124811FB04F1084430F81610B3
S315000020C0A9421CBF491C20F81610F7BD502200215A
S315000020D00748FFF7E6BC5022FF210448FFF7E1BCA2
S315000020E0024A22F810107047F4F0032080F0032013
S315000020F030F00320A0230300CCDF0320902303004D
S31500002100D0F0032015E092480078704710B5914C46
S31500002110207860B900F00DF805F015FB012121705B
S3150000212028B10188B1F5817F24BF007D2070207819
S3150000213010BD10B5864C207840BB05F0E5FA024686
S315000021408549012002F054FC01202070834C207840
S31500002150FF281BD105F0F7FAB8B140880006400EFB
S3150000216000F0010020701022FF217D48FFF799FC46
S31500002170207801280AD1FFF7C9FF032806DBBDE84E
S315000021801040B621774805F0C9B9207010BD80B55A
S31500002190FFF7CFFFBDE8014005F0D5BA704B082226
S315000021A0FF2103EBC000FFF77CBC2DE9F047174683
S315000021B06D4A04468846D2E9000184B0674DDFF8CF
S315000021C0A091CDE901014FF0000AFFF7B2FF287890
S315000021D0012827D1FFF79AFF022823DB002659F8AA
S315000021E0360010F1010F02D0401CA04203D0761C2D
S315000021F0022EF4DB16E0F6B2FF2E13D0022E11DA11
S3150000220018F8011B8DF8011009EBC60000F064F800
S31500002210601E05F013FB7F1E824680BB3046FFF72B
S31500002220BDFF641C2878012810D1FFF76FFFBFB2ED
S3150000223097FBF0F100FB117040B17F1E14FA87F096
S315000022400190BFB218F807008DF80800B8B230B197
S31500002250BAB24146204605F0F1FA824678B90198AD
S3150000226010F1010F0BD0002059F8301011F1010FB9
S3150000227009D0401CC0B20228F6DB4FF0010A5046D6
S3150000228004B0BDE8F087082201A909EBC000FFF7FA
S31500002290C5FBF4E770B531480078012882B019D142
S315000022A0FFF747FF00242E4D304E3088ADF8000072
S315000022B055F8340010F1010F09D005EBC40000F009
S315000022C00BF855F8340005F0B9FA010003D1641C87
S315000022D0022CEADB002076BD022200798DF8000090
S315000022E06946704770B504460D461646FFF721FF4E
S315000022F0324629462046BDE8704005F0A9BA2DE9C8
S31500002300F04104460D46FFF714FF2946204605F026
S31500002310AEFA06460027DFF8488058F8370010F175
S31500002320010F07D0A04205D3291988423CBFF8B255
S31500002330FFF734FF7F1C022FEFDB3046BDE8F0814C
S3150000234080B5FFF7F6FEBDE8014005F09CBA000037
S3150000235093FC032094FC032024200300C0DF032009
S31500002360C0EF032018200300382003003C6503005B
S3150000237000B5A1B080787D22694604F0F0FD010029
S315000023801CBF694603F0E7F921B000BD38B50A461F
S315000023900146104605F087FB0446FF2C01D11820A4
S315000023A032BD06F09DFA0546204605F0F9FA2846A4
S315000023B032BD80B503F0D2F8BDE80240012010B569
S315000023C0040014BF0848002006F08BFB50B1002C17
S315000023D0BDE8104014BF054A054A034605490420D6
S315000023E002F006BB10BD0000280803001008030019
S315000023F01C080300E407030080B500F021FDF0B1DE
S31500002400DFF85019042002F0F3FADFF84C0906F061
S31500002410BCFE0B2007F007FADFF8940A0068007884
S31500002420012808BF022006F05CFE032002F0F6F940
S3150000243000F0DAF8BDE80240022007F039BA01BD23
S3150000244080B5002007F00DFABDE80140D4E7F0B5ED
S31500002450044683B00E46E0894CF25E01884204BF12
S31500002460208AB0F5805F154601D00020FEBD207899
S31500002470002854D1207D800751D5072E4FDB2878C0
S31500002480AF7840B1112802D1032F04D147E01928B3
S3150000249008BF032F43D1324603212846FEF7C6FD67
S315000024A0022F06D0032F0CD0062F1CD0072F2DD0BD
S315000024B035E0082E33DBEA790146601C00F0E4FBC8
S315000024C02DE00A2EA1BF697A0A010A32964226DB5E
S315000024D005F10A02019200912B7AEA790146601C05
S315000024E000F03CFC1BE0092E19DB3246072128468A
S315000024F0FEF79EFD044607F0B1F9022802D100F06E
S315000025009FFC60B1204602F003FA08E000F09AF85A
S31500002510012804D000F094FC08B900F084F90120E9
S31500002520FEBD5EB5DFF88C69DFF88C19338804468A
S3150000253000F02FF830888F2108421DD0902C02D150
S31500002540BDE8574029E004F001FC012820D000F046
S31500002550AAFDE8B93088DFF86439DFF86429DFF8C6
S31500002560641902900194DFF86009009000F02BF9DD
S31500002570BDE85E40022029E1800504D5912C07D1F3
S31500002580BDE8574063E12046BDE85E4007F061BA0A
S3150000259057BD2246012002F02BBA10B5DFF81419F8
S315000025A0DFF82849002088B0088001A9684604F0B1
S315000025B07DFD9DF80F00A0700822BDF80C0020805C
S315000025C001A9201DFFF72AFA9DF814006073DFF8B1
S315000025D00009017808000CBF0022DFF8F828204621
S315000025E007F048FB08B010BD70B590B005A8DFF83D
S315000025F0E818282207F09EFB04F0A8FB08B100208B
S315000026001EE001A802F0F5F80400DFF8D058DFF864
S31500002610B06804D000943246DFF8C4380CE005A850
S3150000262002F077F905A901A806F028FD040006D0F6
S3150000263000943246DFF8AC38294600F0C4F820464C
S3150000264010B070BD80B5684604F03AFD93280AD1F3
S31500002650DFF85C08006800788DF80000012804BFE8
S3150000266002208DF800009DF8000002BD70B58CB008
S3150000267004460D4616462C22002101A8FFF711FA42
S315000026808DF80640ADF8046002A807F0AAF982208A
S31500002690ADF82A00FFF7D6FF8DF82C00FFF7A4FF50
S315000026A0294601A806F0F0FB04469DF82C00DFF849
S315000026B03828DFF8381800902346012002F098F9F0
S315000026C020460CB070BDF0B5DFF8E857DFF82018EB
S315000026D02B88DFF8EC67044685B0FFF75AFF2878A9
S315000026E070278F21084206D03246DFF808180420EA
S315000026F002F07EF92EE0FFF777FF684607F071F8E3
S31500002700009840F080000090684607F074F807F0E3
S3150000271095F8DFF8E4170870FFF794FFDFF8DC1789
S315000027200B68DFF8DC17096801B10B43024600218C
S31500002730184606F0DAFC070008BF2C800AD0DFF83E
S31500002740C407DFF87837DFF8C017009001973246E4
S3150000275000F039F8384605B0F0BD0120B3E7022095
S31500002760B1E70420AFE70820ADE7022007F079B80B
S31500002770012007F076B8002007F073B810B5DFF82F
S31500002780344720788F21084282B018D0DFF87C07C2
S31500002790DFF82837DFF82827DFF87417009000F0F5
S315000027A012F82088410603D5BDE8164000200DE04A
S315000027B040F020002080BDE8134007F0A4BB13BD05
S315000027C000902A464146042002F012B9DFF8E416CA
S315000027D010B504460020088082B0DFF8380701787B
S315000027E069B100210170DFF8E40690F8290001289C
S315000027F01CBF002006F0C9FC002000F022FADFF81A
S31500002800F806007801F041FE40B10090DFF8083785
S31500002810DFF8AC26DFF80417FFF7D5FF2046BDE842
S31500002820164007F035BA80B5DFF88806018841F40E
S315000028300071018007F033FE40B10246DFF8E01672
S31500002840042002F0D5F8BDE8014000E001BD80B5E6
S31500002850FF20FEF7C2FFFF2002F014F8FF2002F06F
S3150000286014F8FFF7C9FD02F057F8DFF84816002004
S31500002870088001BD70B504468EB094F8280030B9C2
S315000028800022DFF8A016012002F0B2F84CE001A801
S3150000289004F016FC054604A808F07EF8DFF8146676
S315000028A03088BDF810309DF80420DFF87C160090C3
S315000028B0012002F09DF83088092108421FBF02A9B5
S315000028C00022C1E90022932D15D008220DF1120035
S315000028D0FFF7EEF850B307A9684604F0E7FB28B9FE
S315000028E00822211D07A8FFF7E3F8F8B1DFF83C1628
S315000028F000F06DF818E0C00718D5932D16D1FFF734
S31500002900A1FE02281CBF94F8280002280ED0DFF88A
S31500002910201600F05CF8FFF795FE94F82830DFF8F3
S3150000292014160246FFF736FE002000E001200EB026
S3150000293070BD2DE9F041DFF87C55064682B0288847
S3150000294000900C4696F82830B278DFF8F015012092
S3150000295002F04EF828788F21084236D03046FFF72D
S3150000296089FF70B3684608F0A0FE2878DFF85C851A
S31500002970DFF8C475C00609D597F900309DF9001037
S315000029804246304600F066FA01281EDB2C2231460C
S315000029904046FFF743F8DFF838650020307044B151
S315000029A010222146DFF82C05FFF738F83078401C56
S315000029B030709DF800003870288840F0100028809C
S315000029C003E0DFF87C1500F002F8BDE8F381012092
S315000029D002F00EB82DE9F043DFF8D84421888F22A3
S315000029E0114283B071D041F0400102002180DFF82E
S315000029F0D054DFF8C86408D0009033462A46DFF882
S31500002A001C15FFF7E0FE04205CE0880605D5DFF81C
S31500002A103415FFF7DCFF002054E0C80648D5DFF880
S31500002A20AC74DFF8E484B87806F0FDFE38B10190A6
S31500002A303346DFF81405FFF7C3FE012042E0207895
S31500002A40032108421CBF97F82900012840F6B8392F
S31500002A5015D0DFF8F814FFF7BAFF484606F095FBE5
S31500002A60002000F0D5F850B101903346DFF8E004BD
S31500002A70FFF7A6FE2078800748BF062022D4DFF89D
S31500002A80D404008800F0DDF850B101903346DFF839
S31500002A90C804FFF795FE2078400748BF072011D4E9
S31500002AA0494603B0BDE8F043DFF8680404F024BCEF
S31500002AB0DFF8A804DFF85814009033462A46FFF7DB
S31500002AC082FE0320BDE8FE4380E603B0BDE8F04386
S31500002AD0DFF88C14012001F08BBF10B50446DFF837
S31500002AE00824DFF88014012001F082FF2046BDE8AB
S31500002AF010406FE710B50446DFF8B80300788F2161
S31500002B00084209D02288DFF86014012001F070FF26
S31500002B102088DFF8B813888410BD80B501462C22C2
S31500002B20DFF8A803FEF77AFFDFF8A4130020087089
S31500002B308020DFF88013088001BD2DE9FC41DFF815
S31500002B40D413DFF870430020087001202288DFF8D4
S31500002B501C1401F04DFF20788F21084256D000202A
S31500002B6000F06FF82088DFF8A043D54DDFF84C83DE
S31500002B70D64FDFF88463C10718D500F061F908B9AC
S31500002B803078B870FFF730FD384606F0CEF907000A
S31500002B903CD0BA2808D001904346DFF8D403009011
S31500002BA02A462146FFF70FFE052026E0000727D517
S31500002BB03869009065A3072200F03EF84CF25E00EB
S31500002BC000904FF6FF72002307F11C011046FFF735
S31500002BD0D6F8070006D000972A46DFF89833BF4993
S31500002BE0FFF7F1FD67B1DFF89003009001974346C8
S31500002BF02A462146FFF7E7FD0820BDE8F641E5E550
S31500002C00307801F042FCBDE8F341C6E4BDE8F3814B
S31500002C101CB5AE4C01904EA320690090022200F034
S31500002C200BF800F022F8040004D000940420D34BE3
S31500002C3000F026F8204616BD4FF480511120FFF70C
S31500002C4051B81CB5A14C019097A3206900900622AB
S31500002C50FFF7F2FF00F009F8040004D00094042006
S31500002C60C74B00F00DF8204616BD4CF25E000090F2
S31500002C704FF6FF72002304F11C011046FFF77FB8E0
S31500002C808F4A964901F0B4BE2DE9F04F85B08046D3
S31500002C900F461546FEF75BFA064602950196009723
S31500002CA082A303224FF480511920FFF71BF803A8D3
S31500002CB004F0F8F9B349B4480988084400904CF286
S31500002CC05E070020FEF743F91DE0082103A8FEF782
S31500002CD07EF95046FEF73BF95846FEF747F9A088BD
S31500002CE0FEF744F94846FEF732F9504601F00EFE6B
S31500002CF0FEF72DF92846FEF72AF900980099007884
S31500002D00401C08706D1CEDB2B542BEBF0099097833
S31500002D10042911DA9D4901EB0514284694F806901A
S31500002D20FEF704FD8246694890F8260000064CBF6F
S31500002D30B4F802B0BB46C8E74FF6FF72009700230F
S31500002D4041461046FFF71BF877E0000077000000C9
S31500002D50777500006CE20200E09304002DE9FC4F59
S31500002D6083B000269DF838201201ADF80020694A8C
S31500002D7012786AB1554B1A698A4209D1014608226E
S31500002D8003F11C00FEF794FE441EA441E40F00E08C
S31500002D90002400253DE00F980F99BDF80020B6B23B
S31500002DA03044019006F1080080B2461C0F5C0F9873
S31500002DB0B1B2FEF73DF98046B61CBDF800200F986B
S31500002DC0B1B2FEF735F98146B01C0F9980B211F801
S31500002DD000A0401C80B2861C11F800B0C4B13C486B
S31500002DE00078A8B901993B480822FEF717FE384833
S31500002DF03849007801EB00110F72A1F80A80A1F89A
S31500002E000C9081F80EA081F80FB0401C3049087074
S31500002E106D1CE8B29DF838108842BCD36CB12C48C2
S31500002E20007850B99DF80C0038B19DF8100005B037
S31500002E30BDE8F04F0818C0B2EAE605B0BDE8F08F6D
S31500002E4000B585B0684606F0CCFC009800F001009D
S31500002E5005B000BDF0B500F1260583B0287802F173
S31500002E602607800638780C461E4602D5800602D410
S31500002E7015E080060ED478790190009622466B798B
S31500002E804349022001F0B4FD787969793018611858
S31500002E90814202DA4FF0FF30FEBD884201DA01209E
S31500002EA0FEBD0020FEBD0000777600007775750038
S31500002EB074F4032006F80320A0E20200F4E2020004
S31500002EC0ECE20200CCE202000CE30200E4E10320A3
S31500002ED060FC032048E203201CE3020044E30200F6
S31500002EE058E3020070E3020070E8020088E3020083
S31500002EF0C0E30200E8E3020061FC032080D903205E
S31500002F0084D9032010E4020004E4020030E4020045
S31500002F1028E4020040E2032054E4020048E40200F0
S31500002F2070E40200A0E40200E0E402001CE50200F6
S31500002F305CE502009CE5020062FC0320BCE50200A1
S31500002F40F8E5020028E6020058E6020074E60200F0
S31500002F50A8E602008CDF0320D4E60200F8E60200B1
S31500002F6010E7020040E7020054E7020084E702008F
S31500002F70A8E702000CE80200C4E70200DCE7020052
S31500002F80F8E7020048FC032020F403203CF203206B
S31500002F902CE80200DFF8182C1268127882420AD058
S31500002FA019B1012A03D1022805D000207047022A50
S31500002FB008BF0128F9D101207047DFF8F81B887592
S31500002FC0704710B5DFF8E84B2068407B112805D024
S31500002FD040F207110FF20C0004F0A0FA216841201C
S31500002FE0487310BD6173736F63696174696F6E2E88
S31500002FF06300000080B5022002F0C7F902F0CEF9A6
S3150000300000F0E6FB042805D1DFF8A80B417D491D39
S31500003010417505E04FF47A71DFF89C0B04F06CF90A
S31500003020BDE8014002F0BBB910B5DFF8884B0020BF
S31500003030E0742078FF2803D004F0B2FCFF20207053
S3150000304010BD70B582B004460D4604F033FC06464A
S31500003050B01D08F051FB00F44040B0F5404F0CBFE6
S31500003060062000203118097C4A00490802F00E02A9
S3150000307001F038018918401800F11106DFF8FC0B41
S315000030800068005DF6B286420BDA831BDBB20F2BBB
S31500003090A8BF0F230020009032462146284604F0A0
S315000030A01EFD304676BDDFF8080B0068407B3328EE
S315000030B01CBF4328532801D10120704700207047C8
S315000030C01FB5012008F046FB08F049FB08F062FD39
S315000030D0F0B1DFF8E04AA07910B104F10A0005E08A
S315000030E020786946FFF7ADFF0DF10300DFF8C82A27
S315000030F000211170617901F01DF9FFF795FF00F0CD
S3150000310008F80AF0A0FB08F07BFB012001F03FFA6B
S315000031101FBD10B500F0C0FD017B032918BF0429AF
S3150000312005D1408801F00AFA08BF032008D001F053
S31500003130C3FA044601F0C4FA214603F036FB022026
S3150000314001F0C6FA0AF0C4FC00F09AFDBDE8104092
S315000031500AF0A5BB38B5DFF85C4ADFF8545AA0750B
S31500003160FFF762FF00214FF6FF7001F0D9F92868DA
S31500003170417B032918BF00291ED0332918BF4329D4
S3150000318014D101F07CF92868017B032918BF0429B2
S3150000319006D103214173A07DBDE8324002F058B943
S315000031A0A07D02F055F9BDE83140B2E72121417317
S315000031B0BDE8314007F0CCB931BD10B5DFF8F019E4
S315000031C0DFF8F0490968002048734FF6FE700AF0F0
S315000031D081FF4FF6FF700AF085FF01F050F9A07DE0
S315000031E0BDE8104002F034B910B504462346182253
S315000031F001F047F9DFF8AC0A0021017114B1FF2C88
S3150000320002D10121017007E0012100F8041BA10091
S31500003210491C090204F070F800F032FD002010BDD0
S31500003220DFF8801A00200871DEE730B50D4689B058
S31500003230044668690FF2901107902346287C069091
S315000032401622E8890590287B0490E87A039095F980
S315000032500A00029028890190009501F000F8287B69
S3150000326000280CBF4FF6FE700AF030FF2B462246B0
S3150000327009B0BDE83040014601202DE9F041DFF8F4
S31500003280304980462068407B00280F4616461D467A
S3150000329049D1300047D0052E45DA00F09BF842D1DF
S315000032A002F07EF800283ED102F07CF808B1042E28
S315000032B039DB287B032816D14FF6FE70874214D1DE
S315000032C0012E08BF002710D0022E2CD10AF0FEFED8
S315000032D04FF6FC71884202DA0AF0F8FE01E00AF0C5
S315000032E0BAFF074601E0012E1DD0B8F1000F0CD041
S315000032F0287B03280CBF01210021012E0CBF0120D1
S31500003300002007F068FB01005CD12946384600F032
S31500003310D1FF010056D102F03DF802F022F820B1AB
S3150000332002F040F808B170204CE02068DFF884789D
S31500003330407B33281EBF53280020F875304600F026
S3150000334091FF387F20B102F02DF808B90BF015F97E
S31500003350287B032803D12846BDE8F0413FE0082238
S31500003360294607F10A00FEF759FB287B0328A8BF68
S315000033700020B874FFF758FE9420B875B87C216811
S3150000338000280CBF01203120487301230020387526
S315000033902068817B4809020003D1BA7F03FA01F154
S315000033A008E001F01F0140F0180003FA01F10522C0
S315000033B041EAC061052006F0FEFC010002D0226849
S315000033C000215173BDE8F0814242387057424242B3
S315000033D057424400DFF85C0C00780B28704710B5A4
S315000033E004460022082101F0F5F908B1012010BDBC
S315000033F00AF06CFE00224FF6FF7100F081FF217C7F
S31500003400204600F097FF6269E189207C0AF093FB71
S31500003410DFF89C070068007B012808BF08F065F804
S31500003420FFF777FE002010BD38B5DFF88447014668
S315000034302068407B002802BFDFF8F80B00780B28D5
S3150000344001D0702032BDDFF8705721B1022205F19C
S315000034500800FEF7E3FA684601F039F808B1932050
S3150000346032BD9DF80030142201F00BF800F0ACFFDD
S31500003470010050D19DF8000000F0F4FE2068007BAA
S31500003480012818BF022807D0032818BF042825D111
S31500003490002001F057F808B300F0ADFF2068007B6C
S315000034A0032814BF04280BF0EDF8FFF732FE0120C5
S315000034B00BF00EF901002ED12068007B032818BFFF
S315000034C0042827D1287A800724D50522DFF8D017CB
S315000034D0012000F034F801001CD032BD2168132011
S315000034E048730020DFF8CC16087501222068817B1E
S315000034F04809030008BF02FA01F107D001F01F01D5
S3150000350040F0180002FA01F141EAC06105220720E5
S3150000351006F051FC002032BDFF2210E038B504460B
S315000035201046032818BF04280D4601D0022032BDDC
S3150000353000F098FE29462046BDE83440ECE72DE928
S31500003540FC41804600F0A8FB0D46017B012916468A
S3150000355027D0407B022818BF032822D1332001F050
S31500003560B7F82806DFF84C76400F14BF0522BA7F5D
S315000035702946052006F01FFC044698B9FFF754FDBE
S315000035800AF0ACFD38815FEA080014BF0220012072
S31500003590B87407F10A0000F0B2FF00203875FE7516
S315000035A000E070240194009543462C220FF20C0192
S315000035B000F055FE2046BDE8F68100004242444236
S315000035C00000000038B5044604F074F905462046AC
S315000035D00BF0A1F82C18204608F08EF84FF6FF5194
S315000035E001402046BDE8344008F08DB870B588B07B
S315000035F00C4616461D4630B920460BF091F903A934
S315000036000AF0B1FF03A807218DF808100190310ACE
S315000036108DF80A1001200C998DF80B1000908DF88A
S315000036200960042302AA012120460BF0C2FA0646CD
S31500003630FF2E18D021460BF0AAF815B93046FFF731
S31500003640C1FF0D9808B930460DE020460AF08DFFFF
S3150000365018B130460BF084FC01E000F0FAFD30466C
S3150000366004F09EF9FF2008B070BD2DE9F24F84B03A
S31500003670044616469B4600274FF6FF7556B1304660
S315000036800BF0D3FA8046707840084FF0010A00F03C
S31500003690010905E008460BF0E2F8BA46B94680464D
S315000036A000F096F8032818BF042800F08E800BF16E
S315000036B001019DF81000C9B204F019FB83464008C9
S315000036C000F001008DF808005FEA0B6000F0ABFC2B
S315000036D058BF4BF0800B022804D1DFF8C8050078EC
S315000036E0204301D1022722E040460AF09EFCADF8B5
S315000036F0000003219DF810000BF007F8050008BF35
S315000037000125BAF1000F03D0301D07F0F5FF01E0E7
S31500003710BDF800000146009501235A4640460AF0CE
S315000037201BFF05464FF6FF70854208BF0127E6B12D
S31500003730200003D14FF6FF70854204D1301D07F0FB
S31500003740DBFF014600E029460120019000974B4629
S315000037502A464046FFF74AFF9DF8080050B94FF643
S31500003760FF7140460BF0EEFF04E03A46294640461C
S315000037700CF0ACFB4FBB9DF8080088B141462846CB
S315000037800CF001F8DFF828140968896A0E2212FB8A
S3150000379000F211444A7942F040024A710CF041F8B5
S315000037A09EB10AF093FCB9F1000F18BF002403D1B3
S315000037B0002C14BF03240124014643462A46204612
S315000037C005B0BDE8F04F0CF0D3BB05B0BDE8F08FF7
S315000037D0DFF8D4040068007B70472DE9FC4780467B
S315000037E0894601A800210160164648460AF09DFF59
S315000037F005465FEA0800DFF8947B08D028460BF000
S3150000380014FA824628460BF005FA044604E04846B8
S315000038100BF025F882463C460020009004233246F1
S31500003820494601A804F05BF90DF1050007F064FFB5
S3150000383081469DF807605FEA080006D008223946EF
S315000038402046FEF735F900286FD1D94F3868C17E7A
S3150000385011B16978890713D55FEA080110D0407B5A
S31500003860022808BF002E0BD148460AF033FC09F0A7
S31500003870EAFF992300F004FE992001F0E9FD54E0E7
S3150000388000F0C0FF002818BF002E03D09420FFF7D9
S3150000389061FC4AE000F0B6FF002846D050460BF027
S315000038A0E5FDFF2818BF5FEA080104D138684088A3
S315000038B051460BF068FF0BF0B4FF3868BE4E4188E6
S315000038C05246484600F01CFD3868BA4C417B012937
S315000038D016BF3129112143214173022001F054FD05
S315000038E040F6B831304603F007FD0AF0CBFE002063
S315000038F060753868C17E19B9304603F0F3FC11E0F3
S31500003900B8F1000F05D06978890702D5FFF7D8FB13
S3150000391008E0007B042805D10521304603F0ECFCC5
S3150000392009206075AD20FFF748FB01F0F4FCBDE807
S31500003930F3872DE9F04F8DB082460AF0F6FE8146F8
S315000039400AF038FF039050460AF089FF804602AB22
S31500003950052205A950460CF00DFE02288DF8000040
S31500003960019021D050460AF0D6FE0399914D904E13
S3150000397008189DF808100F185046FFB2394604F093
S31500003980B6F9FC1C01284FF6FF7B0ED0022813D097
S31500003990042800F0E98006281AD007286CD00828E9
S315000039A027D07C2800F0AD80FEE03B460022514641
S315000039B00020FFF75AFEF7E03068407B012804BF7D
S315000039C0A87C002803D13A465146FFF706FFEBE0F4
S315000039D040460AF0C3FD014659451CBF40460CF05F
S315000039E041FA3068407B022802D140460CF0E8FDDF
S315000039F0DAE0002007F0AEFE791C00F0DFF8814621
S31500003A00E1B200F0DCF80446B91D00F0D7F807462D
S31500003A105F45EDD00AF036FE3068407B132808D1AA
S31500003A2000F0E9FC50460AF01AFF014620460BF06A
S31500003A30AAFE3068407B022818BF13281BD13846DF
S31500003A400AF048FB48460AF04DFB0021002000F032
S31500003A5071FC4146204600F063FDE878DFF8C41BA0
S31500003A60087000F00DF93068417B132903D123213A
S31500003A70417306F052FA97E003980121484404F096
S31500003A8012F8044600230022214601200CF099FD7D
S31500003A90204603F085FF3068407B022802BFDFF82E
S31500003AA0806B30790028E6D140460CF099FD00285D
S31500003AB07AD09DF8001005AA50460CF08BFD002820
S31500003AC072D00CF0AFFD95F91D2001219140C1EB9C
S31500003AD0011189B290FBF1F201FB1200451C002096
S31500003AE001F052FC0198012806D1307008224146A7
S31500003AF006F10C00FDF792FFA9B2301D03F0FCFBA6
S31500003B0052E0504603F0D6FEC0194178652904BF3D
S31500003B1080786D2848D15949096811F80A10E0B231
S31500003B20884241D20822414603A8FDF777FF6B463B
S31500003B300022E1B250460AF017FFA8BB9DF800002C
S31500003B40FF2831D0DFF8E44A0120207001F021FC83
S31500003B509DF8001003A80CF029FD01F020FC0020C0
S31500003B6020709DF800001DE050460AF097FE0446BE
S31500003B700FF600300088ADF80A00022300200190FD
S31500003B8000900DF10A02012120460BF012F80546BD
S31500003B90FF2D09D021460AF0FAFD0021284604F03F
S31500003BA0B7FB284603F0FCFE0DB0BDE8F08F000021
S31500003BB0F0F70320A8DD032000F60320C9B2504623
S31500003BC004F04CB970B5022001F0DFFB01F0E6FB12
S31500003BD0DFF86454DFF8586A0020287007F0DAFF2F
S31500003BE028B13068C07E10B9FFF76AFA3DE007F0E9
S31500003BF0D1FFDFF8404A10B900F004FE58B1607DED
S31500003C0048B1C821284603F077FB607D401E6075E9
S31500003C1004F072FC29E03068407B132809D000F0DC
S31500003C20F1FD30B93068407B11281CBF432841287C
S31500003C3003D1A07DFFF78EFA17E0022818BF0328EC
S31500003C4003D0002818BF21280FD10024DFF8E85937
S31500003C5007E001F0A3FB002000F099FC01F09FFBB8
S31500003C60641C2978E0B28842F3D3BDE8704001F0C5
S31500003C7096BBDFF8C019002048757047C4DC0320E6
S31500003C8080B501F099FBFF281ABF0648007800208E
S31500003C90BDE802400CF0DBB8DFF894090068704715
S31500003CA000F8FF07F4F50320F0F703202DE9F04FA5
S31500003CB097B0804606A810210CF0C6FC0DF109034A
S31500003CC005220EA940460CF055FC07460026022F99
S31500003CD0B24600F0A081404603F0ECFD0446A01D6C
S31500003CE007F00AFD059004F1090007F005FDADF89F
S31500003CF00A0004F10B0007F0FFFC8146DFF83C09DF
S31500003D00006810F808000190012F6AD10120049084
S31500003D10002706210EA879434418208802285CD182
S31500003D20E07800F07BF91B2857D1E078C11C00F041
S31500003D3076F9192851D1E078011D00F070F94A286A
S31500003D404BD10525E0782818411C00F068F94FEAA8
S31500003D50002BE078291800F062F9584480B29328C5
S31500003D6000F03F0B1BD1E0782818801C5FFA80F921
S31500003D70002000900F234A46414606A803F0AFFEF6
S31500003D8009F10F01C9B2404604F068F8064609F188
S31500003D901101C9B2404604F061F8814616E0412897
S31500003DA014D1E078281800F039F9DFF8941809786A
S31500003DB0401AA0F14D0ADFF878080068007B032856
S31500003DC012BF04284FFA8AF00CF04EFC0BEB0500EC
S31500003DD0851C2179EDB28D42B4D37F1C052F0BDAF9
S31500003DE097E7CDF810A004F10D0007F085FC064614
S31500003DF006A94046FFF725F9F00B8DF808000023C9
S31500003E000D22414606200CF0DCFB06AFB878C0F365
S31500003E10C3000390787800F00F040198202800F082
S31500003E2002F9ACBF9DF826500025022814D1BDF832
S31500003E300AB00AF053F983450ED10AA800F05FFBD9
S31500003E400198202806DB08220DF11B010AA8FDF7C0
S31500003E502FFE08B109F0AAFF0598B0F5004F11BF73
S31500003E60B0F5624F26F4404040F6FF71884269D1B2
S31500003E7001982028C0F2CF80002208210DF11B00F6
S31500003E8000F0A8FC00285DD16A48007801283AD1E4
S31500003E90019427229DF80800BDF80A300FF2D87168
S31500003EA0DFF8A06700F0DAF9DFF89C0700788DF8F4
S31500003EB02A008DF834408DF835500822BDF80A00E6
S31500003EC0ADF828000DF11B019DF808008DF82B00B8
S31500003ED00BA8FDF7A3FD01F05CFA306870B10DF197
S31500003EE0010007F0E0FB684607F0DFFB9DF90020C4
S31500003EF09DF8011033680AA8984702E00AA803F063
S31500003F0023F901F04CFADFF82C67307D002819D12F
S31500003F1000F078FC002824D00120F074002208214B
S31500003F2006F10A0000F056FC20B1BDF80A003189FE
S31500003F30884208D008220DF11B0106F10A00FDF7A0
S31500003F40B7FD002867D19DF8080028B900F06BF886
S31500003F50312818BF33285ED101212046FFF71AF811
S31500003F60002858D09DF81800002802BF787800096C
S31500003F70022850D1FFF790FE017BBA7802290CBFC8
S31500003F8002F0040202F0800222B9022943D04088DE
S31500003F90484540D13078DFF8B476FF2814D07079E0
S31500003FA085420DD1DFF8981696F9020091F90010B6
S31500003FB0884209DB2FD170783978884204D32AE009
S31500003FC0281AC0B2812826DAFFF72EF886F8008074
S31500003FD0404603F0D7FC387870700DF11B01DFF80E
S31500003FE060060078B07003980F28B4BF401C0F20FD
S31500003FF0F07034717571A6F818900822BDF80A00A1
S31500004000308186F807A006F10A00FDF707FD04983F
S3150000401000B10120B07117B0BDE8F08F811CC9B2A4
S31500004020404603F064BEDFF808060068407B704730
S3150000403000000000E6DF032000F603202DE9FF4123
S315000040400546DFF8F045012020750E46174605F0B7
S31500004050A7F900281AD1A846B8F1010F18BF002DFC
S3150000406015D1009733462622A4A100F0F8F801F0F6
S3150000407090F9DFF8DC05026810003946304601D0B9
S31500004080904701E003F07DF801F089F9D5E0DFF80B
S31500004090A0552868407B23280DD100F00DFB04466F
S315000040A000F00EFB214602F080FB022000F010FB20
S315000040B007F0A6FBC1E0002FFCD121281CBF042875
S315000040C0532802D106F044FAB7E000F09BFB002823
S315000040D000F092802678FF2E05D1E07C00280CBFE8
S315000040E0AB2094209DE02868007B032816BF042897
S315000040F0012100212079FEF74DFF08B9982090E0B4
S315000041000CF0CFFE052130460AF0FFFA29688873C5
S3150000411001F001F9A07CF8B900F0FCF9024621890A
S31500004120208B0BF0FAFE00285DD19420FEF745FFA8
S31500004130022001F029F92968DFF818054A7B012ACF
S3150000414005D0312A12BF332A097B04294DD1C82153
S3150000415003F0D2F803204DE009F0B8FF0646208BA5
S31500004160002100F0DDF900F04DFB60B1300003D016
S315000041704FF6F870864206DB0AF06DF82968498822
S3150000418088420646F8D0304609F0A4FF2078092177
S315000041900AF0A0FA09F0A6FF06208DF8080000F044
S315000041A0B9F98DF80900022300200190009002AAB7
S315000041B02868408801210AF0FCFC0646FF2E12D032
S315000041C02868418830460AF0E2FAA07C02281CBF23
S315000041D03046FFF7F7F900F03CF80746304603F0A3
S315000041E0DFFB002FA1D194201BE04FF4167103F0E2
S315000041F083F80020607520E02868407B132816D1DC
S3150000420000F0DAF8BDF8000009F06CFF00F0F3F8F2
S315000042102868017B032918BF042905D1332141737E
S315000042209620FEF797FF08E0FEF773FF05E0B8F16A
S31500004230040F04BF30460DF087FC4FF400600AF00F
S3150000424086F910B90DF007FE08B104F0B3F8BDE821
S31500004250FF810022002130460DF0A2BD0090032010
S315000042600DF0B3BE38B5DFF8C85304462868017BA5
S31500004270A14203D00473204601F0E7F804F0ADFF35
S3150000428040B11CB9002004F0A4FF0EE0012004F0A8
S31500004290A0FF00E01CB12868007B042805D101F0CE
S315000042A047F8FF2808BF012000D00020BDE83240B3
S315000042B004F04ABB38B50D46044695F90A0000F0ED
S315000042C0ADFA08B18B2032BDDFF864030268E97AE3
S315000042D091730068A97AC173204609F0FBFE4FF678
S315000042E0FE7084420CBF4FF6FF70288909F0FAFE73
S315000042F02889DFF840130881002032BD424242007F
S3150000430038B50C46154609F0E5FE09F077FF294653
S31500004310204600F005F9C7480178FF2918BFC07884
S3150000432005D1FFF755FA01280CBF00200120BD4931
S31500004330087031BD7FB504460D4600F03DF8BC4E11
S3150000434094B1C54A0021284609F0F5FB306801788A
S315000043508DF804100822007B8DF80500214602A87E
S31500004360FDF75CFB0DF0D8FE3068817B8DF80310FD
S31500004370C07B8DF8020009F0B1FEADF8000009F02F
S31500004380A5FEADF8060000F019F87FBDD8F60320AB
S315000043901FB5044600F010F81CB100208DF805008A
S315000043A007E009F093FEADF8060009F097FEADF8B8
S315000043B0000000F003F81FBD684635E01023072211
S315000043C0694600200EF039B900B58BB0FFF7F4FF4F
S315000043D0BDF80000ADF8180004A99DF803008DF89B
S315000043E01B009DF802008DF81A00BDF80600FFF7C5
S315000043F061FF0BB000BD1FB5012000F0A3F8044615
S315000044000DF095FEFFF7D8FF1CB900224FF6FF719D
S3150000441003E0FFF741FC4188021DBDF80600FFF7E7
S315000044206FFF0EF0B8F91FBD0146102307220120C9
S315000044300EF003B938B5082000F0A7FF044600F0D7
S31500004440ADFF7B4D854829680078887300F0A4FF8E
S31500004450A04208BF00F035FF00210020FFF76AFFE9
S315000044609B2300F00DF89B2000F0F2FF2868002146
S3150000447020F8441F4180BDE8314000F090BFA37D85
S31500004480132269A103200DF0A0BD10B504460CF05F
S31500004490ACFAFF2801D18A2010BDFFF7C4FD02281F
S315000044A018BF032801D0702010BD6C480470082086
S315000044B000F06AFFFEF78EFF01D03D2010BD684870
S315000044C003F0E5FE08B9A12010BD002010BD1FB500
S315000044D004466846FFF7A8FF9DF80500010008D0CE
S315000044E0052806DA524909689DF8042009789142A0
S315000044F001D0932001E02070002004B010BD1FB54C
S3150000450004466846FFF790FF082202A92046FDF7F9
S3150000451085FA1FBD464953480968097B405C7047C8
S31500004520434A1368588019B90822181DFDF7B9BA0D
S315000045300822181DFDF772BABDF808004FF6FF7184
S315000045408842704710B504464248007AC00784B0D6
S3150000455007D500F011F8FFF7EFFF02D000F012F8D0
S3150000456008B1002006E024B1BDF808006946FFF74F
S31500004570D7FF012004B010BD0A230A226946012094
S315000045800EF05BB80822FF21684600F023B970B52B
S31500004590304D0446287AC00784B00CD5244E3068C6
S315000045A041884FF6FF72914207D100220821001D73
S315000045B000F010F908B100201DE044B1022000F01F
S315000045C0E3FE4FF4F041284602F096FE12E0306812
S315000045D04188ADF808100822011D6846FDF71EFA4D
S315000045E00A230A22FFF7ECFE02230B221E490020B3
S315000045F00EF023F8012004B070BD1C4A107048B1BB
S315000046001B480088010005D04FF47A714143101D04
S3150000461002F072BE7047154800787047000000002F
S315000046200CF60320CBFC032042420000DCF50320FD
S31500004630F0F70320A8DD0320CCDF0320C4DC032031
S31500004640A2F9032054F60320A3F90320A1F90320BD
S3150000465058F6032000F6032000F8FF07BBFC0320F2
S315000046603544000044620300AAF8032020F6032024
S31500004670A8DF032004600000425742420000000009
S3150000468000210FF2E412535C834201D101207047EE
S31500004690491CC9B20829F6D30020704700210FF241
S315000046A0D012535C834201D101207047491CC9B224
S315000046B00829F6D30020704768480068408870478C
S315000046C066480068001D704764480068C07E7047F1
S315000046D038B5624D624C296848730228614915D184
S315000046E02868007B04281CBF084602F0FBFD2868EA
S315000046F0007B03281EBF0428204602F0F3FD28682D
S315000047004069C00054BF9024BC2405E00020087016
S31500004710207091240EF058F8204604F055FB50B94D
S31500004720234613224CA103200DF04FFC2046BDE882
S31500004730324000F08DBE31BD48480068407B00F035
S315000047400F00704745480068407B00F00F000228C4
S3150000475001D1012070470020704738B50446FFF7A5
S31500004760F1FF3E4D28B92868407B032801D09320ED
S3150000477032BD09F0B3FC20812868C07BA07228688E
S31500004780807BE0722046FFF7BAFE0020207304F11A
S31500004790140104F1100009F0A4F9E081002032BDF3
S315000047A070B52E4D2E680C46FFF7CCFF20B9707BF6
S315000047B0032801D0932070BDF07B20702868807B91
S315000047C00CF028F860702868807B00F01F00A0704D
S315000047D0002070BD10B5002300E05B1CDCB28C42EB
S315000047E005D210F8014B9442F7D0002010BD0120ED
S315000047F010BD80B508210BF04AFF08B1002002BDAC
S31500004800A52002BD15480068407B01281CBF312841
S31500004810332801D1012070470020704710B50446A7
S315000048200CF0A2F8010002D10C490968CC7310BD46
S315000048300A48006890F90F00704708480068807BB6
S3150000484070470120704705480068807B400918BF03
S31500004850012070470000000042420000F0F70320EC
S315000048603CF8032044F803200001020304051D2040
S315000048700203040508090A0B01207047012070474E
S31500004880012070477047B520704770477047002079
S3150000489070470020704700207047002070470020B6
S315000048A070470020704700207047002070470120A5
S315000048B07047012070470020704700207047002095
S315000048C070470020704700207047002070477047EF
S315000048D000207047704700207047B520704770472A
S315000048E00020704770477047704701207047704737
S315000048F0704700207047044800680078012808BF08
S31500004900022070470000000074F403200020704766
S315000049107047704701207047704770470020704706
S315000049200020704700207047002070470020704725
S315000049300020704700207047002070470020704715
S315000049407047B52070470020704700207047002050
S315000049507047704770477047704770470020704730
S31500004960704700004FF6FF71884207D0010A01D058
S31500004970002070473E490978084000D00120704762
S31500004980020A07D13A4A1378002914BF184323EACA
S31500004990000010707047830800EB5373C108DB08F2
S315000049A00122A0EBC30002FA00F000EB012080B266
S315000049B07047F8B504460D4616461F46FFF7D2FF68
S315000049C058B13A46314620200EF056F81DB125A1C1
S315000049D020200EF049F827480480F1BD80B5FFF786
S315000049E0C1FF20B1BDE8024020200EF096B801BDFF
S315000049F00CB480B50A4602AB012104E00CB480B5C4
S31500004A000A4602AB0021FFF7D4FF01BC5DF80CFBA0
S31500004A102DE9F04182B00024174DDFF8608012A71F
S31500004A2012A6E0B2FFF7B7FFFFF79CFF002814BFFE
S31500004A30304638460090224658F824302946202031
S31500004A400EF004F820200EF068F8641C052CE8DB54
S31500004A50BDE8F3810122FF2101E001220021044883
S31500004A60FDF71FB80D0A00006E6F00005945530090
S31500004A70DEDF03204CFC0320E853030070DD032037
S31500004A8080B5FFF788FFBDE80440012178E780B5CF
S31500004A90FFF781FFBDE80440002171E7F0B53F4B09
S31500004AA03E4CB0FBF3F304FB13004FF46164B0FB20
S31500004AB0F4F40C714FF461650C796C43051B3C26CC
S31500004AC0B5FBF6F54D7101224D7916FB0544001B29
S31500004AD0887100244FF4FA6008808A70CA702E48E4
S31500004AE001E00022641C9C4236D28D78170003D068
S31500004AF0022D08BF1D2602D0461916F8016CCF7884
S31500004B00BE4203BF6D1C8D7001257D1CCD708D7856
S31500004B100D2DE7D10A88521C0A8001258D7092B2AC
S31500004B20550802EB9575AD08B2EB8505D9D164251C
S31500004B3092FBF5F5642606FB15255DB94FF4C8759D
S31500004B4092FBF5F54FF4C87606FB1522521E9241EC
S31500004B50D20FC7E70122C5E7F0BD10B588B00446FD
S31500004B6005A9FFF79BFF9DF81A009DF817309DF8E1
S31500004B7016200B49039004949DF8190002909DF8A5
S31500004B8018000190BDF81400009006480088FFF751
S31500004B902FFF08B010BD00006856030080510100C9
S31500004BA0445603004CFC0320FFF7D5BEFFF783BE37
S31500004BB02DE9F04104460D4616469846FFF7D2FE0B
S31500004BC0A0B1002710E0EA5D41462046FFF716FF38
S31500004BD0F81007EB10700011A7EB0010062804BFB1
S31500004BE02046FFF7FBFE7F1CB742ECDBBDE8F081F9
S31500004BF0002B14BF3FA340A3DAE738B504460D46A1
S31500004C002846FCF73AFA0246691CFFE7204601B03F
S31500004C10BDE8304039A3CBE700B587B001780691EF
S31500004C203E224178059181780491C17803910179FA
S31500004C3002914179019181790091C37936483749CA
S31500004C400088FFF7DBFE07B000BD01460022022008
S31500004C5005E00246304800882AA1FFF7C9BE2DE9C3
S31500004C60F84F8A4693460025814627A627A70FF2C6
S31500004C709008294C08E0424620883146FFF7BEFEE0
S31500004C802088FFF7ABFE6D1C4D450EDA2088012308
S31500004C9008220AEBC501FFF7ABFFBBF1000F02D1FB
S31500004CA0681C4845E7D13A46E6E7BDE8F18F2DE9AD
S31500004CB0F041194D04462888FFF754FEC0B1012083
S31500004CC0002613A70FF24C08E1070DD518B928885E
S31500004CD04146FFF793FE288832463946FFF78EFE97
S31500004CE02888FFF77BFE00206408761C1B2EEBDB72
S31500004CF0BDE8F081257820002578000025630000B6
S31500004D000000000025700000202570000D0A00003C
S31500004D10256400002C2000004CFC03207C5303007B
S31500004D201CB5044620684079FBF724FC002820685F
S31500004D300DD14188032914D0E27C01920091437978
S31500004D400D4A0E490120FFF753FE01210EE040886F
S31500004D50192804BF607D012803D120460EF0FDF915
S31500004D6038B920460FF02BF8010002D02046FBF799
S31500004D703DFF012016BD00BF24540300F853030075
S31500004D800098002100E0491CCAB28242FBD370475A
S31500004D902DE9F04F044687B02068617DB0F80280A7
S31500004DA0E67CD4F80890A789257D00290CBF402110
S31500004DB080218DF80C104079FBF7DCFBC0B9002E82
S31500004DC018BF022E14D0032E1CBF052EB8F1030FF8
S31500004DD00ED0DFF854140120FFF70AFE3346DFF841
S31500004DE04C24DFF84C140220FFF702FE0121D6E125
S31500004DF0E17B080003D0208A002800F02281DFF83A
S31500004E00342400201080607D00280CBF082000207C
S31500004E1009B140F00400FCF79AF8E07B10B1208A53
S31500004E20FCF7A4F8A07CDFF810B4FCF790F8681C37
S31500004E30791B162E80B2ADF8001009EB050A00F2B8
S31500004E40FC80DFE816F0170006017A002D00350118
S31500004E507A00F5003A0100013F0144014901C6000C
S31500004E605D01FA00FA00FA006F0197016F01A101D6
S31500004E70C6005D010120FCF76AF8A81C8742C0F253
S31500004E80A58000F0BCF9064600F0BEF900F055FB1F
S31500004E9018B900F0B9F90FF0D6FAAD1CADB2ECE7CF
S31500004EA00420FCF754F84FF0000A19E000F0A1F9CD
S31500004EB05A460498C01C01904146208A00902068FA
S31500004EC040790FF0E2F9010006D0FCF740F85846A9
S31500004ED0FCF74CF80AF1010A05984019C51CADB259
S31500004EE0E81C87421DDB00F08AF900F06DF928B155
S31500004EF00498C01CFCF7C1F8401C03E09DF80D00A7
S31500004F000FF0C8FBC0B205909DF80D00FCF72BF919
S31500004F100028CBD00599781B401AC01EC6D5802024
S31500004F20D3E75FFA8AF0002850D1E07B257DC1499E
S31500004F30002814BF04200220088000208DF80E00EF
S31500004F4082460420FCF703F80EE09DF80E10491C7B
S31500004F508DF80E10FBF7FBFF5846FCF707F89DF897
S31500004F600F002818C51CADB2E81CB84222DA00F0C2
S31500004F7046F900F029F928B10498C01CFCF77DF821
S31500004F80401C03E09DF80D000FF084FB8DF80F0028
S31500004F905A4600F02EF941460498C01C0190208A1A
S31500004FA00090206840790FF027F90100CDD10AF171
S31500004FB0010AD4E7052E0BD09DF80E0030B95FFA32
S31500004FC08AF109B98021EAE0FBF7C1FFFBF7C7FDCB
S31500004FD0E8E00C2E0CBF0D201620FBF7B8FF00F002
S31500004FE00EF99AF80270162E814603D11A2F06DBA7
S31500004FF0192704E0152E02D1142FA8BF13278D48B8
S3150000500000880BEB00050020FBF7A1FF152E0CBF57
S3150000501001200020029001974A46208A9DF80C3014
S3150000502000904146206840790FF04AF92870CDE794
S315000050302046FFF72EFC0028CAD1E07B002800F0AE
S31500005040B5808421ABE02046FFF776FC0028BFD16F
S31500005050F3E7B8F10A0F24D1784E307808B3E07B35
S31500005060002804BF781B08281BD100F0C8F80028C8
S3150000507001BF9AF8020000289AF80300E22810D12E
S31500005080291D3A4689B24846FBF7D0FFFFF78CFD4B
S31500005090FFF78CFD02466A490220FFF7A9FC0020B3
S315000050A030705146BDF80020404600F053FA74E0D7
S315000050B000F085F8FFF752FC6FE000F080F8FFF78C
S315000050C0EAFB6AE000F07BF8FFF738FC65E000F0E9
S315000050D076F800F041FA60E019F800509AF800708E
S315000050E09DF80C0000902B46206840793A464146D0
S315000050F0FCF755F82A4639464046FFF7CEFB51E005
S315000051009AF8001001B101210546162E0CBF0120A8
S31500005110002000907B1B9BB209EB05024046FFF77F
S31500005120BEFB3AE09AF800909AF80170112E04D16D
S315000051301220FBF70CFF002003E01420FBF707FF0B
S3150000514001203C490D8801910397C5F1510189B2AF
S315000051500091CDF808900BEB05014B1C4246214609
S31500005160FCF7EEFB0BF80500324932480088401C7C
S3150000517008802BE700F031F80020FFF701FE00F071
S3150000518017F8FFF790FB08E000F027F80120FFF77B
S31500005190F7FD00F00DF8FFF784FB18B90021204653
S315000051A0FBF724FD012007B0BDE8F08F8221F6E76A
S315000051B0BFB200974B46218A324640467047BDF83B
S315000051C00020514640467047834609EB050004908F
S315000051D080788DF80D00FBF7C6BF9AF8006006B11F
S315000051E0012681443F1AB8B200904B4632464146EA
S315000051F070479DF80D009DF80C30029070473A46B6
S3150000520029464846FBF714BF0A4800889DF80C302B
S31500005210C0F1520080B201903246208A0090414689
S3150000522020684079704700002C5403005454030052
S315000052303854030048FC032020F40320A9FC032073
S315000052405C54030010B57448744C006820606060BC
S3150000525048220021FCF725FC714821680078087077
S315000052604FF6FF71206800224180027300202268F9
S3150000527050730B202268907314202268D0734FF667
S31500005280FE722068028241820BF0CCF92168087612
S315000052900BF0C8F9216848760BF0C4F921688876C6
S315000052A0604821680078C8765F492068096840F838
S315000052B0281F5E49097801715D4821680068086306
S315000052C010BD10B50BF03DFB544C6168897B8842DC
S315000052D003D008460BF0E4FA50B90BF036FB014652
S315000052E0606890F90F00814204D00BF03DFB08B1D5
S315000052F0012010BD6068008A0BF080FF6068408A5C
S315000053000BF09CFF6068007B012818BF00200BF0A3
S3150000531060FF002010BD10B5464C0020207003F041
S315000053202CFB20B92046BDE8104001F0DBBF67E04A
S3150000533080B5002000F015F828B1002000F005F82F
S3150000534008B1002002BDFF2002BD34480068407B42
S3150000535002281CBF1128432801D1012070470020D4
S3150000536070472E480068007B01281CBF02280328CE
S3150000537001D10120704700207047002070470020AF
S3150000538070472D490870704770470020704701200C
S31500005390704770470020704700207047704770477D
S315000053A00020704780B50020FFF7CFFF18B1BDE899
S315000053B002400020D5E702BD80B50020FFF7C5FFFB
S315000053C030B116480068007B032801DA002002BDD0
S315000053D0FF2002BD10B5040005D040F249110FF2BE
S315000053E00C1002F09BF81448007808B9702010BD24
S315000053F009480068482111FB04F108440749486040
S31500005400BDE810405DE705484068008A70470348DC
S315000054104068408A70470000F0DC0320F0F7032064
S31500005420D5DF0320D6DF0320F4DC0320CDDF032005
S31500005430F8DC0320E8F70320EADF032070470020AA
S3150000544070470020704703F057B8704701F0C8BE98
S3150000545001F078BD82B08DF80010DDE90023114619
S315000054601A4602B0FCF7A0BD32B586B004468DF8E8
S315000054700420FFF705F905462046FFF70FF980F0EF
S3150000548001010D420DD0BDF81800FFF7DCF98DF8CB
S315000054900000FF2804BF00208DF80000CDF808D0DA
S315000054A01AE0294308BF06A815D0054214D0BDF856
S315000054B01800FFF7C8F98DF80000FF2804BF002088
S315000054C08DF800009DF800008DF80C00BDF818005E
S315000054D0ADF80E0003A80290DDE901010A46014677
S315000054E02046FCF761FD07B030BD0000656D6265C2
S315000054F0722D6D756C74692D6E6574776F726B2D78
S31500005500737475622E63000080B5FFF7E0F9FBF750
S315000055106FF8BDE801400FF0CDB880B5FFF7DAF9B6
S31500005520FBF78EF80FF0ACF9BDE801400FF0F6B9C5
S315000055307047FFF7F7B9FFF7FBB90020704738B59A
S3150000554004460D46FFF70CFA29462046BDE83440CE
S315000055500FF055BAFFF7EEB9FFF7F9B9DFF8BC144B
S31500005560012008707047DFF8B4140A7882421CBF25
S315000055700870FCF724BF70470170090A4170801C4F
S31500005580704710B504460822FCF748FA04F10800F3
S3150000559010BD2DE9F041044684B0207D0A9F0D46DA
S315000055A0800721781E464CBF4CF601484CF6010890
S315000055B008003B880CBF1E20202003EB000C624530
S315000055C008DA00920246DFF858140420FFF716FAAC
S315000055D0742045E009B948F0200801A801F062FDF1
S315000055E041462846FFF7C8FFA189401CFFF7C4FFC4
S315000055F0217D890703D5611CFFF7C3FF02E061899E
S31500005600FFF7BAFF804601F09FFB01464046FFF7D1
S31500005610B3FF01A9FFF7B5FF0B21FFF7ADFF217817
S3150000562041F0030100F8011B21780C2904BF618AAF
S31500005630FFF7A2FF218AFFF79FFFE189FFF79CFF93
S315000056403A8880463146FCF7E9F9207DC00748BF15
